{
  "_format": "hh-sol-artifact-1",
  "contractName": "InheritanceSubmission",
  "sourceName": "contracts/07_Inheritance.sol",
  "abi": [
    {
      "inputs": [
        {
          "internalType": "address",
          "name": "_salesPerson",
          "type": "address"
        },
        {
          "internalType": "address",
          "name": "_engineeringManager",
          "type": "address"
        }
      ],
      "stateMutability": "nonpayable",
      "type": "constructor"
    },
    {
      "inputs": [],
      "name": "engineeringManager",
      "outputs": [
        {
          "internalType": "address",
          "name": "",
          "type": "address"
        }
      ],
      "stateMutability": "view",
      "type": "function"
    },
    {
      "inputs": [],
      "name": "salesPerson",
      "outputs": [
        {
          "internalType": "address",
          "name": "",
          "type": "address"
        }
      ],
      "stateMutability": "view",
      "type": "function"
    }
  ],
  "bytecode": "0x608060405234801561001057600080fd5b5060405161016a38038061016a83398101604081905261002f9161007c565b600080546001600160a01b039384166001600160a01b031991821617909155600180549290931691161790556100af565b80516001600160a01b038116811461007757600080fd5b919050565b6000806040838503121561008f57600080fd5b61009883610060565b91506100a660208401610060565b90509250929050565b60ad806100bd6000396000f3fe6080604052348015600f57600080fd5b506004361060325760003560e01c80630f628194146037578063687981dd146065575b600080fd5b6000546049906001600160a01b031681565b6040516001600160a01b03909116815260200160405180910390f35b6001546049906001600160a01b03168156fea2646970667358221220e64761b5d5b473c962b346f5e0bd991c9330a4c838037487495bf08dc6ba10e264736f6c63430008180033",
  "linkReferences": {},
  "deployedLinkReferences": {}
}