{
  "_format": "hh-sol-artifact-1",
  "contractName": "AddressBookFactory",
  "sourceName": "contracts/10_NewExercise.sol",
  "abi": [
    {
      "inputs": [],
      "name": "deploy",
      "outputs": [
        {
          "internalType": "address",
          "name": "",
          "type": "address"
        }
      ],
      "stateMutability": "nonpayable",
      "type": "function"
    }
  ],
  "bytecode": "0x608060405234801561001057600080fd5b5061104c806100206000396000f3fe608060405234801561001057600080fd5b506004361061002b5760003560e01c8063775c300c14610030575b600080fd5b610038610054565b6040516001600160a01b03909116815260200160405180910390f35b60003360405161006390610095565b6001600160a01b039091168152602001604051809103906000f08015801561008f573d6000803e3d6000fd5b50905090565b610f74806100a38339019056fe608060405234801561001057600080fd5b50604051610f74380380610f7483398101604081905261002f916100be565b806001600160a01b03811661005e57604051631e4fbdf760e01b81526000600482015260240160405180910390fd5b6100678161006e565b50506100ee565b600080546001600160a01b038381166001600160a01b0319831681178455604051919092169283917f8be0079c531659141344cd1fd0a4f28419497f9722a3daafe3b4186f6b6457e09190a35050565b6000602082840312156100d057600080fd5b81516001600160a01b03811681146100e757600080fd5b9392505050565b610e77806100fd6000396000f3fe608060405234801561001057600080fd5b506004361061007d5760003560e01c8063b9ed6fca1161005b578063b9ed6fca146100bf578063e6505e1e146100d2578063ef1d6ddd146100f2578063f2fde38b1461010757600080fd5b80633f06f6e814610082578063715018a6146100975780638da5cb5b1461009f575b600080fd5b610095610090366004610a1d565b61011a565b005b61009561028c565b6000546040516001600160a01b0390911681526020015b60405180910390f35b6100956100cd366004610ae6565b6102a0565b6100e56100e0366004610ae6565b6103dc565b6040516100b69190610bcb565b6100fa6105ec565b6040516100b69190610be5565b610095610115366004610c49565b610865565b6101226108a3565b6040518060800160405280600354815260200187878080601f016020809104026020016040519081016040528093929190818152602001838380828437600092019190915250505090825250604080516020601f88018190048102820181019092528681529181019190879087908190840183828082843760009201919091525050509082525060408051602085810282810182019093528582529283019290918691869182918501908490808284376000920182905250939094525050600354815260016020818152604090922084518155918401519192508201906102099082610d0d565b506040820151600282019061021e9082610d0d565b506060820151805161023a916003840191602090910190610920565b5050600380546002805460018101825560009182527f405787fa12a823e0f2b7631cc41b3ba8828b3321ca811111fa75cd3aa3bb5ace0182905591925061028090610de3565b90915550505050505050565b6102946108a3565b61029e60006108d0565b565b6102a86108a3565b60008181526001602081905260409091200180546102c590610c88565b90506000036102ee57604051623d577b60ea1b8152600481018290526024015b60405180910390fd5b60008181526001602081905260408220828155919061030f9083018261096b565b61031d60028301600061096b565b61032b6003830160006109a5565b505060005b6002548110156103d857816002828154811061034e5761034e610dfc565b9060005260206000200154036103d0576002805461036e90600190610e12565b8154811061037e5761037e610dfc565b90600052602060002001546002828154811061039c5761039c610dfc565b60009182526020909120015560028054806103b9576103b9610e2b565b600190038181906000526020600020016000905590555b600101610330565b5050565b6104076040518060800160405280600081526020016060815260200160608152602001606081525090565b600082815260016020819052604090912001805461042490610c88565b905060000361044857604051623d577b60ea1b8152600481018390526024016102e5565b6000828152600160208181526040928390208351608081019094528054845291820180549184019161047990610c88565b80601f01602080910402602001604051908101604052809291908181526020018280546104a590610c88565b80156104f25780601f106104c7576101008083540402835291602001916104f2565b820191906000526020600020905b8154815290600101906020018083116104d557829003601f168201915b5050505050815260200160028201805461050b90610c88565b80601f016020809104026020016040519081016040528092919081815260200182805461053790610c88565b80156105845780601f1061055957610100808354040283529160200191610584565b820191906000526020600020905b81548152906001019060200180831161056757829003601f168201915b50505050508152602001600382018054806020026020016040519081016040528092919081815260200182805480156105dc57602002820191906000526020600020905b8154815260200190600101908083116105c8575b5050505050815250509050919050565b60025460609060009067ffffffffffffffff81111561060d5761060d610c72565b60405190808252806020026020018201604052801561066957816020015b6106566040518060800160405280600081526020016060815260200160608152602001606081525090565b81526020019060019003908161062b5790505b50905060005b60025481101561085f57600160006002838154811061069057610690610dfc565b90600052602060002001548152602001908152602001600020604051806080016040529081600082015481526020016001820180546106ce90610c88565b80601f01602080910402602001604051908101604052809291908181526020018280546106fa90610c88565b80156107475780601f1061071c57610100808354040283529160200191610747565b820191906000526020600020905b81548152906001019060200180831161072a57829003601f168201915b5050505050815260200160028201805461076090610c88565b80601f016020809104026020016040519081016040528092919081815260200182805461078c90610c88565b80156107d95780601f106107ae576101008083540402835291602001916107d9565b820191906000526020600020905b8154815290600101906020018083116107bc57829003601f168201915b505050505081526020016003820180548060200260200160405190810160405280929190818152602001828054801561083157602002820191906000526020600020905b81548152602001906001019080831161081d575b50505050508152505082828151811061084c5761084c610dfc565b602090810291909101015260010161066f565b50919050565b61086d6108a3565b6001600160a01b03811661089757604051631e4fbdf760e01b8152600060048201526024016102e5565b6108a0816108d0565b50565b6000546001600160a01b0316331461029e5760405163118cdaa760e01b81523360048201526024016102e5565b600080546001600160a01b038381166001600160a01b0319831681178455604051919092169283917f8be0079c531659141344cd1fd0a4f28419497f9722a3daafe3b4186f6b6457e09190a35050565b82805482825590600052602060002090810192821561095b579160200282015b8281111561095b578251825591602001919060010190610940565b506109679291506109bf565b5090565b50805461097790610c88565b6000825580601f10610987575050565b601f0160209004906000526020600020908101906108a091906109bf565b50805460008255906000526020600020908101906108a091905b5b8082111561096757600081556001016109c0565b60008083601f8401126109e657600080fd5b50813567ffffffffffffffff8111156109fe57600080fd5b602083019150836020828501011115610a1657600080fd5b9250929050565b60008060008060008060608789031215610a3657600080fd5b863567ffffffffffffffff80821115610a4e57600080fd5b610a5a8a838b016109d4565b90985096506020890135915080821115610a7357600080fd5b610a7f8a838b016109d4565b90965094506040890135915080821115610a9857600080fd5b818901915089601f830112610aac57600080fd5b813581811115610abb57600080fd5b8a60208260051b8501011115610ad057600080fd5b6020830194508093505050509295509295509295565b600060208284031215610af857600080fd5b5035919050565b6000815180845260005b81811015610b2557602081850181015186830182015201610b09565b506000602082860101526020601f19601f83011685010191505092915050565b805182526000602080830151608082860152610b646080860182610aff565b905060408401518582036040870152610b7d8282610aff565b606086810151888303918901919091528051808352908501935060009250908401905b80831015610bc05783518252928401926001929092019190840190610ba0565b509695505050505050565b602081526000610bde6020830184610b45565b9392505050565b600060208083016020845280855180835260408601915060408160051b87010192506020870160005b82811015610c3c57603f19888603018452610c2a858351610b45565b94509285019290850190600101610c0e565b5092979650505050505050565b600060208284031215610c5b57600080fd5b81356001600160a01b0381168114610bde57600080fd5b634e487b7160e01b600052604160045260246000fd5b600181811c90821680610c9c57607f821691505b60208210810361085f57634e487b7160e01b600052602260045260246000fd5b601f821115610d08576000816000526020600020601f850160051c81016020861015610ce55750805b601f850160051c820191505b81811015610d0457828155600101610cf1565b5050505b505050565b815167ffffffffffffffff811115610d2757610d27610c72565b610d3b81610d358454610c88565b84610cbc565b602080601f831160018114610d705760008415610d585750858301515b600019600386901b1c1916600185901b178555610d04565b600085815260208120601f198616915b82811015610d9f57888601518255948401946001909101908401610d80565b5085821015610dbd5787850151600019600388901b60f8161c191681555b5050505050600190811b01905550565b634e487b7160e01b600052601160045260246000fd5b600060018201610df557610df5610dcd565b5060010190565b634e487b7160e01b600052603260045260246000fd5b81810381811115610e2557610e25610dcd565b92915050565b634e487b7160e01b600052603160045260246000fdfea2646970667358221220d90b22668a9a5bcdba5910ac313298c47ee5740ad03c3d1ea5b8c085374fc8b864736f6c63430008180033a2646970667358221220c286ae9f4cb8b5b5f60106d7e5d715a7748f7033a325e5ed60b6b44065dce02764736f6c63430008180033",
  "linkReferences": {},
  "deployedLinkReferences": {}
}