{
  "_format": "hh-sol-artifact-1",
  "contractName": "ArraysExercise",
  "sourceName": "contracts/04_ArraysExercise.sol",
  "abi": [
    {
      "inputs": [],
      "name": "afterY2K",
      "outputs": [
        {
          "internalType": "uint256[]",
          "name": "",
          "type": "uint256[]"
        },
        {
          "internalType": "address[]",
          "name": "",
          "type": "address[]"
        }
      ],
      "stateMutability": "view",
      "type": "function"
    },
    {
      "inputs": [
        {
          "internalType": "uint256[]",
          "name": "_toAppend",
          "type": "uint256[]"
        }
      ],
      "name": "appendToNumbers",
      "outputs": [],
      "stateMutability": "nonpayable",
      "type": "function"
    },
    {
      "inputs": [],
      "name": "getNumbers",
      "outputs": [
        {
          "internalType": "uint256[]",
          "name": "",
          "type": "uint256[]"
        }
      ],
      "stateMutability": "view",
      "type": "function"
    },
    {
      "inputs": [
        {
          "internalType": "uint256",
          "name": "",
          "type": "uint256"
        }
      ],
      "name": "numbers",
      "outputs": [
        {
          "internalType": "uint256",
          "name": "",
          "type": "uint256"
        }
      ],
      "stateMutability": "view",
      "type": "function"
    },
    {
      "inputs": [],
      "name": "resetNumbers",
      "outputs": [],
      "stateMutability": "nonpayable",
      "type": "function"
    },
    {
      "inputs": [],
      "name": "resetSenders",
      "outputs": [],
      "stateMutability": "nonpayable",
      "type": "function"
    },
    {
      "inputs": [],
      "name": "resetTimestamps",
      "outputs": [],
      "stateMutability": "nonpayable",
      "type": "function"
    },
    {
      "inputs": [
        {
          "internalType": "uint256",
          "name": "_unixTimestamp",
          "type": "uint256"
        }
      ],
      "name": "saveTimestamp",
      "outputs": [],
      "stateMutability": "nonpayable",
      "type": "function"
    },
    {
      "inputs": [
        {
          "internalType": "uint256",
          "name": "",
          "type": "uint256"
        }
      ],
      "name": "senders",
      "outputs": [
        {
          "internalType": "address",
          "name": "",
          "type": "address"
        }
      ],
      "stateMutability": "view",
      "type": "function"
    },
    {
      "inputs": [
        {
          "internalType": "uint256",
          "name": "",
          "type": "uint256"
        }
      ],
      "name": "timestamps",
      "outputs": [
        {
          "internalType": "uint256",
          "name": "",
          "type": "uint256"
        }
      ],
      "stateMutability": "view",
      "type": "function"
    }
  ],
  "bytecode": "0x6101c060405260016080908152600260a052600360c052600460e052600561010052600661012052600761014052600861016052600961018052600a6101a081905261004d91600091610060565b5034801561005a57600080fd5b506100c5565b8280548282559060005260206000209081019282156100a0579160200282015b828111156100a0578251829060ff16905591602001919060010190610080565b506100ac9291506100b0565b5090565b5b808211156100ac57600081556001016100b1565b610750806100d46000396000f3fe608060405234801561001057600080fd5b506004361061009e5760003560e01c80639977c78a116100665780639977c78a14610115578063a00b7acd14610140578063ade82bfd146101ba578063b1cebac5146101c2578063d39fa233146101ca57600080fd5b806320aaf79a146100a35780634f9377db146100c25780637f66b1b8146100d757806389f915f6146100df5780638bc33af3146100f4575b600080fd5b6100ab6101dd565b6040516100b99291906105e6565b60405180910390f35b6100d56100d0366004610646565b6103a9565b005b6100d56103f7565b6100e7610405565b6040516100b991906106bb565b6101076101023660046106d5565b61045d565b6040519081526020016100b9565b6101286101233660046106d5565b61047e565b6040516001600160a01b0390911681526020016100b9565b6100d561014e3660046106d5565b6001805480820182557fb10e2d527612073b26eecdfd717e6a320cf44b4afac2b0732d9fcbe2b7fa0cf60180546001600160a01b031916331790556002805491820181556000527f405787fa12a823e0f2b7631cc41b3ba8828b3321ca811111fa75cd3aa3bb5ace0155565b6100d56104a8565b6100d56104b4565b6101076101d83660046106d5565b610517565b6002546060908190600090815b8181101561022a5763386d89d06002828154811061020a5761020a6106ee565b90600052602060002001541115610222578260010192505b6001016101ea565b5060008267ffffffffffffffff81111561024657610246610704565b60405190808252806020026020018201604052801561026f578160200160208202803683370190505b50905060008367ffffffffffffffff81111561028d5761028d610704565b6040519080825280602002602001820160405280156102b6578160200160208202803683370190505b5090506000805b8481101561039c5763386d89d0600282815481106102dd576102dd6106ee565b906000526020600020015411156103945760028181548110610301576103016106ee565b906000526020600020015484838151811061031e5761031e6106ee565b6020026020010181815250506001818154811061033d5761033d6106ee565b9060005260206000200160009054906101000a90046001600160a01b031683838151811061036d5761036d6106ee565b60200260200101906001600160a01b031690816001600160a01b0316815250508160010191505b6001016102bd565b5091969095509350505050565b60005b818110156103f25760008383838181106103c8576103c86106ee565b835460018082018655600095865260209586902092909502939093013592019190915550016103ac565b505050565b61040360016000610527565b565b6060600080548060200260200160405190810160405280929190818152602001828054801561045357602002820191906000526020600020905b81548152602001906001019080831161043f575b5050505050905090565b6002818154811061046d57600080fd5b600091825260209091200154905081565b6001818154811061048e57600080fd5b6000918252602090912001546001600160a01b0316905081565b61040360026000610527565b604080516101408101825260018152600260208201526003918101919091526004606082015260056080820152600660a0820152600760c0820152600860e08201526009610100820152600a610120820181905261051491600091610545565b50565b6000818154811061046d57600080fd5b50805460008255906000526020600020908101906105149190610595565b828054828255906000526020600020908101928215610585579160200282015b82811115610585578251829060ff16905591602001919060010190610565565b50610591929150610595565b5090565b5b808211156105915760008155600101610596565b60008151808452602080850194506020840160005b838110156105db578151875295820195908201906001016105bf565b509495945050505050565b6040815260006105f960408301856105aa565b82810360208481019190915284518083528582019282019060005b818110156106395784516001600160a01b031683529383019391830191600101610614565b5090979650505050505050565b6000806020838503121561065957600080fd5b823567ffffffffffffffff8082111561067157600080fd5b818501915085601f83011261068557600080fd5b81358181111561069457600080fd5b8660208260051b85010111156106a957600080fd5b60209290920196919550909350505050565b6020815260006106ce60208301846105aa565b9392505050565b6000602082840312156106e757600080fd5b5035919050565b634e487b7160e01b600052603260045260246000fd5b634e487b7160e01b600052604160045260246000fdfea2646970667358221220b7cd67662727d0b06707728a6f3ef37227b86b9061917d216ccb5aa0d5638c0164736f6c63430008180033",
  "linkReferences": {},
  "deployedLinkReferences": {}
}