{
  "_format": "hh-sol-artifact-1",
  "contractName": "ControlStructures",
  "sourceName": "contracts/02_ControlStructures.sol",
  "abi": [
    {
      "inputs": [
        {
          "internalType": "uint256",
          "name": "_time",
          "type": "uint256"
        }
      ],
      "name": "AfterHours",
      "type": "error"
    },
    {
      "inputs": [
        {
          "internalType": "uint256",
          "name": "_time",
          "type": "uint256"
        }
      ],
      "name": "doNotDisturb",
      "outputs": [
        {
          "internalType": "string",
          "name": "",
          "type": "string"
        }
      ],
      "stateMutability": "pure",
      "type": "function"
    },
    {
      "inputs": [
        {
          "internalType": "uint256",
          "name": "_number",
          "type": "uint256"
        }
      ],
      "name": "fizzBuzz",
      "outputs": [
        {
          "internalType": "string",
          "name": "",
          "type": "string"
        }
      ],
      "stateMutability": "pure",
      "type": "function"
    }
  ],
  "bytecode": "0x608060405234801561001057600080fd5b5061033b806100206000396000f3fe608060405234801561001057600080fd5b50600436106100365760003560e01c8063440c93e21461003b578063e655b7bb14610064575b600080fd5b61004e610049366004610265565b610077565b60405161005b919061027e565b60405180910390f35b61004e610072366004610265565b610134565b60606100846003836102cd565b6000036100e1576100966005836102cd565b6000036100c15750506040805180820190915260088152672334bd3d213abd3d60c11b602082015290565b50506040805180820190915260048152632334bd3d60e11b602082015290565b6100ec6005836102cd565b600003610113575050604080518082019091526004815263213abd3d60e11b602082015290565b505060408051808201909152600581526414dc1b185d60da1b602082015290565b60606109608210610147576101476102ef565b610898821180610158575061032082105b1561017e5760405163525fb80f60e11b8152600481018390526024015b60405180910390fd5b6103208211801561019057506104af82105b156101b95750506040805180820190915260088152674d6f726e696e672160c01b602082015290565b6104b0821180156101cb57506104eb82105b156102045760405162461bcd60e51b81526020600482015260096024820152684174206c756e63682160b81b6044820152606401610175565b61051482118015610216575061070782105b1561024157505060408051808201909152600a81526941667465726e6f6f6e2160b01b602082015290565b50506040805180820190915260088152674576656e696e672160c01b602082015290565b60006020828403121561027757600080fd5b5035919050565b60006020808352835180602085015260005b818110156102ac57858101830151858201604001528201610290565b506000604082860101526040601f19601f8301168501019250505092915050565b6000826102ea57634e487b7160e01b600052601260045260246000fd5b500690565b634e487b7160e01b600052600160045260246000fdfea26469706673582212209373dead2211a5adc4d994b6cda13ed110fd125887e351dc37d1771120cb062864736f6c63430008180033",
  "linkReferences": {},
  "deployedLinkReferences": {}
}