{
  "_format": "hh-sol-artifact-1",
  "contractName": "EmployeeStorage",
  "sourceName": "contracts/03_EmployeeStorage.sol",
  "abi": [
    {
      "inputs": [
        {
          "internalType": "uint16",
          "name": "_shares",
          "type": "uint16"
        },
        {
          "internalType": "string",
          "name": "_name",
          "type": "string"
        },
        {
          "internalType": "uint24",
          "name": "_salary",
          "type": "uint24"
        },
        {
          "internalType": "uint256",
          "name": "_idNumber",
          "type": "uint256"
        }
      ],
      "stateMutability": "nonpayable",
      "type": "constructor"
    },
    {
      "inputs": [
        {
          "internalType": "uint256",
          "name": "_updatedShares",
          "type": "uint256"
        }
      ],
      "name": "TooManyShares",
      "type": "error"
    },
    {
      "inputs": [
        {
          "internalType": "uint256",
          "name": "_slot",
          "type": "uint256"
        }
      ],
      "name": "checkForPacking",
      "outputs": [
        {
          "internalType": "uint256",
          "name": "r",
          "type": "uint256"
        }
      ],
      "stateMutability": "view",
      "type": "function"
    },
    {
      "inputs": [],
      "name": "debugResetShares",
      "outputs": [],
      "stateMutability": "nonpayable",
      "type": "function"
    },
    {
      "inputs": [
        {
          "internalType": "uint16",
          "name": "_newShares",
          "type": "uint16"
        }
      ],
      "name": "grantShares",
      "outputs": [],
      "stateMutability": "nonpayable",
      "type": "function"
    },
    {
      "inputs": [],
      "name": "idNumber",
      "outputs": [
        {
          "internalType": "uint256",
          "name": "",
          "type": "uint256"
        }
      ],
      "stateMutability": "view",
      "type": "function"
    },
    {
      "inputs": [],
      "name": "name",
      "outputs": [
        {
          "internalType": "string",
          "name": "",
          "type": "string"
        }
      ],
      "stateMutability": "view",
      "type": "function"
    },
    {
      "inputs": [],
      "name": "viewSalary",
      "outputs": [
        {
          "internalType": "uint24",
          "name": "",
          "type": "uint24"
        }
      ],
      "stateMutability": "view",
      "type": "function"
    },
    {
      "inputs": [],
      "name": "viewShares",
      "outputs": [
        {
          "internalType": "uint16",
          "name": "",
          "type": "uint16"
        }
      ],
      "stateMutability": "view",
      "type": "function"
    }
  ],
  "bytecode": "0x608060405234801561001057600080fd5b5060405161068e38038061068e83398101604081905261002f916100a7565b6000805461ffff191661ffff8616179055600261004c848261022e565b506000805462ffffff909316620100000264ffffff00001990931692909217909155600155506102ed9050565b634e487b7160e01b600052604160045260246000fd5b805162ffffff811681146100a257600080fd5b919050565b600080600080608085870312156100bd57600080fd5b845161ffff811681146100cf57600080fd5b602086810151919550906001600160401b03808211156100ee57600080fd5b818801915088601f83011261010257600080fd5b81518181111561011457610114610079565b604051601f8201601f19908116603f0116810190838211818310171561013c5761013c610079565b816040528281528b8684870101111561015457600080fd5b600093505b828410156101765784840186015181850187015292850192610159565b60008684830101528098505050505050506101936040860161008f565b6060959095015193969295505050565b600181811c908216806101b757607f821691505b6020821081036101d757634e487b7160e01b600052602260045260246000fd5b50919050565b601f821115610229576000816000526020600020601f850160051c810160208610156102065750805b601f850160051c820191505b8181101561022557828155600101610212565b5050505b505050565b81516001600160401b0381111561024757610247610079565b61025b8161025584546101a3565b846101dd565b602080601f83116001811461029057600084156102785750858301515b600019600386901b1c1916600185901b178555610225565b600085815260208120601f198616915b828110156102bf578886015182559484019460019091019084016102a0565b50858210156102dd5787850151600019600388901b60f8161c191681555b5050505050600190811b01905550565b610392806102fc6000396000f3fe608060405234801561001057600080fd5b506004361061007d5760003560e01c80634c7648091161005b5780634c764809146100d957806352c98689146100ef5780636d45e2a5146101025780638f6a861a1461011857600080fd5b806306fdde03146100825780633f83ea3b146100a057806349574402146100b7575b600080fd5b61008a61012a565b604051610097919061025f565b60405180910390f35b6100a960015481565b604051908152602001610097565b60005462010000900462ffffff1660405162ffffff9091168152602001610097565b6100ed6000805461ffff19166103e8179055565b005b6100ed6100fd3660046102ae565b6101b8565b60005460405161ffff9091168152602001610097565b6100a96101263660046102d9565b5490565b60028054610137906102f2565b80601f0160208091040260200160405190810160405280929190818152602001828054610163906102f2565b80156101b05780601f10610185576101008083540402835291602001916101b0565b820191906000526020600020905b81548152906001019060200180831161019357829003601f168201915b505050505081565b6113898161ffff16106102045760405162461bcd60e51b815260206004820152600f60248201526e546f6f206d616e792073686172657360881b60448201526064015b60405180910390fd5b6000805461021790839061ffff1661032c565b90506113888161ffff16111561024657604051630f7d410960e01b815261ffff821660048201526024016101fb565b6000805461ffff191661ffff9290921691909117905550565b60006020808352835180602085015260005b8181101561028d57858101830151858201604001528201610271565b506000604082860101526040601f19601f8301168501019250505092915050565b6000602082840312156102c057600080fd5b813561ffff811681146102d257600080fd5b9392505050565b6000602082840312156102eb57600080fd5b5035919050565b600181811c9082168061030657607f821691505b60208210810361032657634e487b7160e01b600052602260045260246000fd5b50919050565b61ffff81811683821601908082111561035557634e487b7160e01b600052601160045260246000fd5b509291505056fea26469706673582212204dcd75fa02bd6d8fb61f3642511bd9d23376bb4c6bf46b7817808fb09f68c55764736f6c63430008180033",
  "linkReferences": {},
  "deployedLinkReferences": {}
}