{
  "_format": "hh-sol-artifact-1",
  "contractName": "ErrorTriageExercise",
  "sourceName": "contracts/09_ErrorTriageExercise.sol",
  "abi": [
    {
      "inputs": [
        {
          "internalType": "uint256",
          "name": "_num",
          "type": "uint256"
        }
      ],
      "name": "addToArr",
      "outputs": [],
      "stateMutability": "nonpayable",
      "type": "function"
    },
    {
      "inputs": [
        {
          "internalType": "uint256",
          "name": "_base",
          "type": "uint256"
        },
        {
          "internalType": "int256",
          "name": "_modifier",
          "type": "int256"
        }
      ],
      "name": "applyModifier",
      "outputs": [
        {
          "internalType": "uint256",
          "name": "",
          "type": "uint256"
        }
      ],
      "stateMutability": "pure",
      "type": "function"
    },
    {
      "inputs": [
        {
          "internalType": "uint256",
          "name": "_a",
          "type": "uint256"
        },
        {
          "internalType": "uint256",
          "name": "_b",
          "type": "uint256"
        },
        {
          "internalType": "uint256",
          "name": "_c",
          "type": "uint256"
        },
        {
          "internalType": "uint256",
          "name": "_d",
          "type": "uint256"
        }
      ],
      "name": "diffWithNeighbor",
      "outputs": [
        {
          "internalType": "uint256[]",
          "name": "",
          "type": "uint256[]"
        }
      ],
      "stateMutability": "pure",
      "type": "function"
    },
    {
      "inputs": [],
      "name": "getArr",
      "outputs": [
        {
          "internalType": "uint256[]",
          "name": "",
          "type": "uint256[]"
        }
      ],
      "stateMutability": "view",
      "type": "function"
    },
    {
      "inputs": [],
      "name": "popWithReturn",
      "outputs": [
        {
          "internalType": "uint256",
          "name": "",
          "type": "uint256"
        }
      ],
      "stateMutability": "nonpayable",
      "type": "function"
    },
    {
      "inputs": [],
      "name": "resetArr",
      "outputs": [],
      "stateMutability": "nonpayable",
      "type": "function"
    }
  ],
  "bytecode": "0x608060405234801561001057600080fd5b50610492806100206000396000f3fe608060405234801561001057600080fd5b50600436106100625760003560e01c80631abe2ac214610067578063294323141461008257806364529db5146100a2578063e1819ff9146100ac578063f74e51ea146100ec578063fb8cbced146100ff575b600080fd5b61006f610107565b6040519081526020015b60405180910390f35b610095610090366004610327565b610166565b6040516100799190610359565b6100aa610251565b005b6100aa6100ba36600461039d565b600080546001810182559080527f290decd9548b62a8d60345a988386fc84ba6bc95484008f6362f93160ef3e5630155565b61006f6100fa3660046103b6565b61025e565b610095610295565b600080548190819061011b906001906103ee565b8154811061012b5761012b610401565b90600052602060002001549050600080548061014957610149610417565b600190038181906000526020600020016000905590558091505090565b60408051600380825260808201909252606091600091906020820184803683370190505090508486116101a25761019d86866103ee565b6101ac565b6101ac85876103ee565b816000815181106101bf576101bf610401565b6020026020010181815250508385116101e1576101dc85856103ee565b6101eb565b6101eb84866103ee565b816001815181106101fe576101fe610401565b6020026020010181815250508284116102205761021b84846103ee565b61022a565b61022a83856103ee565b8160028151811061023d5761023d610401565b602090810291909101015295945050505050565b61025c6000806102ed565b565b60008082131561027957610272828461042d565b905061028f565b61028282610440565b61028c90846103ee565b90505b92915050565b606060008054806020026020016040519081016040528092919081815260200182805480156102e357602002820191906000526020600020905b8154815260200190600101908083116102cf575b5050505050905090565b508054600082559060005260206000209081019061030b919061030e565b50565b5b80821115610323576000815560010161030f565b5090565b6000806000806080858703121561033d57600080fd5b5050823594602084013594506040840135936060013592509050565b6020808252825182820181905260009190848201906040850190845b8181101561039157835183529284019291840191600101610375565b50909695505050505050565b6000602082840312156103af57600080fd5b5035919050565b600080604083850312156103c957600080fd5b50508035926020909101359150565b634e487b7160e01b600052601160045260246000fd5b8181038181111561028f5761028f6103d8565b634e487b7160e01b600052603260045260246000fd5b634e487b7160e01b600052603160045260246000fd5b8082018082111561028f5761028f6103d8565b6000600160ff1b8201610455576104556103d8565b506000039056fea264697066735822122079ec324617782953b0fe1c025fe7b17bbd238aafb8218f30fb83086b796b103c64736f6c63430008180033",
  "linkReferences": {},
  "deployedLinkReferences": {}
}