{
  "_format": "hh-sol-artifact-1",
  "contractName": "FavoriteRecords",
  "sourceName": "contracts/05_FavoriteRecords.sol",
  "abi": [
    {
      "inputs": [
        {
          "internalType": "string[]",
          "name": "_approvedRecords",
          "type": "string[]"
        }
      ],
      "stateMutability": "nonpayable",
      "type": "constructor"
    },
    {
      "inputs": [
        {
          "internalType": "string",
          "name": "albumName",
          "type": "string"
        }
      ],
      "name": "NotApproved",
      "type": "error"
    },
    {
      "inputs": [
        {
          "internalType": "string",
          "name": "_albumName",
          "type": "string"
        }
      ],
      "name": "addRecord",
      "outputs": [],
      "stateMutability": "nonpayable",
      "type": "function"
    },
    {
      "inputs": [
        {
          "internalType": "string",
          "name": "",
          "type": "string"
        }
      ],
      "name": "approvedRecords",
      "outputs": [
        {
          "internalType": "bool",
          "name": "",
          "type": "bool"
        }
      ],
      "stateMutability": "view",
      "type": "function"
    },
    {
      "inputs": [],
      "name": "getApprovedRecords",
      "outputs": [
        {
          "internalType": "string[]",
          "name": "",
          "type": "string[]"
        }
      ],
      "stateMutability": "view",
      "type": "function"
    },
    {
      "inputs": [
        {
          "internalType": "address",
          "name": "_address",
          "type": "address"
        }
      ],
      "name": "getUserFavorites",
      "outputs": [
        {
          "internalType": "string[]",
          "name": "",
          "type": "string[]"
        }
      ],
      "stateMutability": "view",
      "type": "function"
    },
    {
      "inputs": [],
      "name": "resetUserFavorites",
      "outputs": [],
      "stateMutability": "nonpayable",
      "type": "function"
    }
  ],
  "bytecode": "0x60806040523480156200001157600080fd5b5060405162000bb438038062000bb4833981016040819052620000349162000159565b60005b8151811015620000e257600160008383815181106200005a576200005a62000284565b60200260200101516040516200007191906200029a565b908152602001604051809103902060006101000a81548160ff0219169083151502179055506001828281518110620000ad57620000ad62000284565b60209081029190910181015182546001810184556000938452919092200190620000d8908262000349565b5060010162000037565b505062000415565b634e487b7160e01b600052604160045260246000fd5b604051601f8201601f191681016001600160401b03811182821017156200012b576200012b620000ea565b604052919050565b60005b838110156200015057818101518382015260200162000136565b50506000910152565b600060208083850312156200016d57600080fd5b82516001600160401b03808211156200018557600080fd5b8185019150601f86601f8401126200019c57600080fd5b825182811115620001b157620001b1620000ea565b8060051b620001c286820162000100565b918252848101860191868101908a841115620001dd57600080fd5b87870192505b838310156200027657825186811115620001fd5760008081fd5b8701603f81018c13620002105760008081fd5b88810151604088821115620002295762000229620000ea565b6200023c828901601f19168c0162000100565b8281528e82848601011115620002525760008081fd5b62000263838d830184870162000133565b85525050509187019190870190620001e3565b9a9950505050505050505050565b634e487b7160e01b600052603260045260246000fd5b60008251620002ae81846020870162000133565b9190910192915050565b600181811c90821680620002cd57607f821691505b602082108103620002ee57634e487b7160e01b600052602260045260246000fd5b50919050565b601f82111562000344576000816000526020600020601f850160051c810160208610156200031f5750805b601f850160051c820191505b8181101562000340578281556001016200032b565b5050505b505050565b81516001600160401b03811115620003655762000365620000ea565b6200037d81620003768454620002b8565b84620002f4565b602080601f831160018114620003b557600084156200039c5750858301515b600019600386901b1c1916600185901b17855562000340565b600085815260208120601f198616915b82811015620003e657888601518255948401946001909101908401620003c5565b5085821015620004055787850151600019600388901b60f8161c191681555b5050505050600190811b01905550565b61078f80620004256000396000f3fe608060405234801561001057600080fd5b50600436106100575760003560e01c80631cf0830b1461005c578063837f88781461007a578063b374ac5914610084578063c7853148146100c2578063d81aa8c4146100d5575b600080fd5b6100646100e8565b60405161007191906103d4565b60405180910390f35b6100826101c1565b005b6100b261009236600461047c565b805160208183018101805160008252928201919093012091525460ff1681565b6040519015158152602001610071565b6100646100d036600461052d565b6101db565b6100826100e336600461055d565b6102ca565b60606001805480602002602001604051908101604052809291908181526020016000905b828210156101b857838290600052602060002001805461012b906105cf565b80601f0160208091040260200160405190810160405280929190818152602001828054610157906105cf565b80156101a45780601f10610179576101008083540402835291602001916101a4565b820191906000526020600020905b81548152906001019060200180831161018757829003601f168201915b50505050508152602001906001019061010c565b50505050905090565b3360009081526002602052604081206101d991610348565b565b6001600160a01b0381166000908152600260209081526040808320805482518185028101850190935280835260609492939192909184015b828210156102bf578382906000526020600020018054610232906105cf565b80601f016020809104026020016040519081016040528092919081815260200182805461025e906105cf565b80156102ab5780601f10610280576101008083540402835291602001916102ab565b820191906000526020600020905b81548152906001019060200180831161028e57829003601f168201915b505050505081526020019060010190610213565b505050509050919050565b600082826040516102dc929190610609565b9081526040519081900360200190205460ff16610319578181604051634f0ffc1b60e01b8152600401610310929190610619565b60405180910390fd5b33600090815260026020908152604082208054600181018255908352912001610343828483610698565b505050565b50805460008255906000526020600020908101906103669190610369565b50565b8082111561038657600061037d828261038a565b50600101610369565b5090565b508054610396906105cf565b6000825580601f106103a6575050565b601f01602090049060005260206000209081019061036691905b8082111561038657600081556001016103c0565b6000602080830181845280855180835260408601915060408160051b87010192508387016000805b8381101561045857888603603f1901855282518051808852835b81811015610431578281018a01518982018b01528901610416565b508781018901849052601f01601f19169096018701955093860193918601916001016103fc565b509398975050505050505050565b634e487b7160e01b600052604160045260246000fd5b60006020828403121561048e57600080fd5b813567ffffffffffffffff808211156104a657600080fd5b818401915084601f8301126104ba57600080fd5b8135818111156104cc576104cc610466565b604051601f8201601f19908116603f011681019083821181831017156104f4576104f4610466565b8160405282815287602084870101111561050d57600080fd5b826020860160208301376000928101602001929092525095945050505050565b60006020828403121561053f57600080fd5b81356001600160a01b038116811461055657600080fd5b9392505050565b6000806020838503121561057057600080fd5b823567ffffffffffffffff8082111561058857600080fd5b818501915085601f83011261059c57600080fd5b8135818111156105ab57600080fd5b8660208285010111156105bd57600080fd5b60209290920196919550909350505050565b600181811c908216806105e357607f821691505b60208210810361060357634e487b7160e01b600052602260045260246000fd5b50919050565b8183823760009101908152919050565b60208152816020820152818360408301376000818301604090810191909152601f909201601f19160101919050565b601f821115610343576000816000526020600020601f850160051c810160208610156106715750805b601f850160051c820191505b818110156106905782815560010161067d565b505050505050565b67ffffffffffffffff8311156106b0576106b0610466565b6106c4836106be83546105cf565b83610648565b6000601f8411600181146106f857600085156106e05750838201355b600019600387901b1c1916600186901b178355610752565b600083815260209020601f19861690835b828110156107295786850135825560209485019460019092019101610709565b50868210156107465760001960f88860031b161c19848701351681555b505060018560011b0183555b505050505056fea2646970667358221220f725727106f31019b8d52d4ec13b1105779e62feb74401f833dbc23102b9378864736f6c63430008180033",
  "linkReferences": {},
  "deployedLinkReferences": {}
}