{
  "_format": "hh-sol-artifact-1",
  "contractName": "GarageManager",
  "sourceName": "contracts/06_GarageManager.sol",
  "abi": [
    {
      "inputs": [
        {
          "internalType": "uint256",
          "name": "_index",
          "type": "uint256"
        }
      ],
      "name": "BadCarIndex",
      "type": "error"
    },
    {
      "inputs": [
        {
          "internalType": "string",
          "name": "_make",
          "type": "string"
        },
        {
          "internalType": "string",
          "name": "_model",
          "type": "string"
        },
        {
          "internalType": "string",
          "name": "_color",
          "type": "string"
        },
        {
          "internalType": "uint256",
          "name": "_numberOfDoors",
          "type": "uint256"
        }
      ],
      "name": "addCar",
      "outputs": [],
      "stateMutability": "nonpayable",
      "type": "function"
    },
    {
      "inputs": [
        {
          "internalType": "address",
          "name": "",
          "type": "address"
        },
        {
          "internalType": "uint256",
          "name": "",
          "type": "uint256"
        }
      ],
      "name": "garage",
      "outputs": [
        {
          "internalType": "string",
          "name": "make",
          "type": "string"
        },
        {
          "internalType": "string",
          "name": "model",
          "type": "string"
        },
        {
          "internalType": "string",
          "name": "color",
          "type": "string"
        },
        {
          "internalType": "uint256",
          "name": "numberOfDoors",
          "type": "uint256"
        }
      ],
      "stateMutability": "view",
      "type": "function"
    },
    {
      "inputs": [],
      "name": "getMyCars",
      "outputs": [
        {
          "components": [
            {
              "internalType": "string",
              "name": "make",
              "type": "string"
            },
            {
              "internalType": "string",
              "name": "model",
              "type": "string"
            },
            {
              "internalType": "string",
              "name": "color",
              "type": "string"
            },
            {
              "internalType": "uint256",
              "name": "numberOfDoors",
              "type": "uint256"
            }
          ],
          "internalType": "struct GarageManager.Car[]",
          "name": "",
          "type": "tuple[]"
        }
      ],
      "stateMutability": "view",
      "type": "function"
    },
    {
      "inputs": [
        {
          "internalType": "address",
          "name": "_user",
          "type": "address"
        }
      ],
      "name": "getUserCars",
      "outputs": [
        {
          "components": [
            {
              "internalType": "string",
              "name": "make",
              "type": "string"
            },
            {
              "internalType": "string",
              "name": "model",
              "type": "string"
            },
            {
              "internalType": "string",
              "name": "color",
              "type": "string"
            },
            {
              "internalType": "uint256",
              "name": "numberOfDoors",
              "type": "uint256"
            }
          ],
          "internalType": "struct GarageManager.Car[]",
          "name": "",
          "type": "tuple[]"
        }
      ],
      "stateMutability": "view",
      "type": "function"
    },
    {
      "inputs": [],
      "name": "resetMyGarage",
      "outputs": [],
      "stateMutability": "nonpayable",
      "type": "function"
    },
    {
      "inputs": [
        {
          "internalType": "uint256",
          "name": "_index",
          "type": "uint256"
        },
        {
          "internalType": "string",
          "name": "_make",
          "type": "string"
        },
        {
          "internalType": "string",
          "name": "_model",
          "type": "string"
        },
        {
          "internalType": "string",
          "name": "_color",
          "type": "string"
        },
        {
          "internalType": "uint256",
          "name": "_numberOfDoors",
          "type": "uint256"
        }
      ],
      "name": "updateCar",
      "outputs": [],
      "stateMutability": "nonpayable",
      "type": "function"
    }
  ],
  "bytecode": "0x608060405234801561001057600080fd5b50610fd4806100206000396000f3fe608060405234801561001057600080fd5b50600436106100625760003560e01c80632698286c14610067578063341fa05d146100905780633ecd55a9146100985780634cd1ed3d146100bb5780636dcb7896146100d0578063d2d50bd8146100d8575b600080fd5b61007a610075366004610a44565b6100eb565b6040516100879190610aac565b60405180910390f35b61007a61031e565b6100ab6100a6366004610b5a565b610546565b6040516100879493929190610b84565b6100ce6100c9366004610c18565b61072b565b005b6100ce61082e565b6100ce6100e6366004610cc3565b610848565b6001600160a01b038116600090815260208181526040808320805482518185028101850190935280835260609492939192909184015b82821015610313578382906000526020600020906004020160405180608001604052908160008201805461015490610d66565b80601f016020809104026020016040519081016040528092919081815260200182805461018090610d66565b80156101cd5780601f106101a2576101008083540402835291602001916101cd565b820191906000526020600020905b8154815290600101906020018083116101b057829003601f168201915b505050505081526020016001820180546101e690610d66565b80601f016020809104026020016040519081016040528092919081815260200182805461021290610d66565b801561025f5780601f106102345761010080835404028352916020019161025f565b820191906000526020600020905b81548152906001019060200180831161024257829003601f168201915b5050505050815260200160028201805461027890610d66565b80601f01602080910402602001604051908101604052809291908181526020018280546102a490610d66565b80156102f15780601f106102c6576101008083540402835291602001916102f1565b820191906000526020600020905b8154815290600101906020018083116102d457829003601f168201915b5050505050815260200160038201548152505081526020019060010190610121565b505050509050919050565b33600090815260208181526040808320805482518185028101850190935280835260609492939192909184015b8282101561053d578382906000526020600020906004020160405180608001604052908160008201805461037e90610d66565b80601f01602080910402602001604051908101604052809291908181526020018280546103aa90610d66565b80156103f75780601f106103cc576101008083540402835291602001916103f7565b820191906000526020600020905b8154815290600101906020018083116103da57829003601f168201915b5050505050815260200160018201805461041090610d66565b80601f016020809104026020016040519081016040528092919081815260200182805461043c90610d66565b80156104895780601f1061045e57610100808354040283529160200191610489565b820191906000526020600020905b81548152906001019060200180831161046c57829003601f168201915b505050505081526020016002820180546104a290610d66565b80601f01602080910402602001604051908101604052809291908181526020018280546104ce90610d66565b801561051b5780601f106104f05761010080835404028352916020019161051b565b820191906000526020600020905b8154815290600101906020018083116104fe57829003601f168201915b505050505081526020016003820154815250508152602001906001019061034b565b50505050905090565b6000602052816000526040600020818154811061056257600080fd5b90600052602060002090600402016000915091505080600001805461058690610d66565b80601f01602080910402602001604051908101604052809291908181526020018280546105b290610d66565b80156105ff5780601f106105d4576101008083540402835291602001916105ff565b820191906000526020600020905b8154815290600101906020018083116105e257829003601f168201915b50505050509080600101805461061490610d66565b80601f016020809104026020016040519081016040528092919081815260200182805461064090610d66565b801561068d5780601f106106625761010080835404028352916020019161068d565b820191906000526020600020905b81548152906001019060200180831161067057829003601f168201915b5050505050908060020180546106a290610d66565b80601f01602080910402602001604051908101604052809291908181526020018280546106ce90610d66565b801561071b5780601f106106f05761010080835404028352916020019161071b565b820191906000526020600020905b8154815290600101906020018083116106fe57829003601f168201915b5050505050908060030154905084565b336000908152602081905260409020805489106107625760405163206480e760e11b8152600481018a905260240160405180910390fd5b8787828b8154811061077657610776610da0565b90600052602060002090600402016000019182610794929190610e1d565b508585828b815481106107a9576107a9610da0565b906000526020600020906004020160010191826107c7929190610e1d565b508383828b815481106107dc576107dc610da0565b906000526020600020906004020160020191826107fa929190610e1d565b5081818a8154811061080e5761080e610da0565b906000526020600020906004020160030181905550505050505050505050565b33600090815260208190526040812061084691610976565b565b3360009081526020818152604091829020825160a0601f8b0184900490930281018301909352608083018981529092918291908b908b9081908501838280828437600092019190915250505090825250604080516020601f8a0181900481028201810190925288815291810191908990899081908401838280828437600092019190915250505090825250604080516020601f8801819004810282018101909252868152918101919087908790819084018382808284376000920182905250938552505050602091820185905283546001810185559381522081519192600402019081906109369082610ede565b506020820151600182019061094b9082610ede565b50604082015160028201906109609082610ede565b5060608201518160030155505050505050505050565b5080546000825560040290600052602060002090810190610997919061099a565b50565b808211156109da5760006109ae82826109de565b6109bc6001830160006109de565b6109ca6002830160006109de565b506000600382015560040161099a565b5090565b5080546109ea90610d66565b6000825580601f106109fa575050565b601f01602090049060005260206000209081019061099791905b808211156109da5760008155600101610a14565b80356001600160a01b0381168114610a3f57600080fd5b919050565b600060208284031215610a5657600080fd5b610a5f82610a28565b9392505050565b6000815180845260005b81811015610a8c57602081850181015186830182015201610a70565b506000602082860101526020601f19601f83011685010191505092915050565b600060208083018184528085518083526040925060408601915060408160051b87010184880160005b83811015610b4c57603f19898403018552815160808151818652610afb82870182610a66565b915050888201518582038a870152610b138282610a66565b9150508782015185820389870152610b2b8282610a66565b60609384015196909301959095525094870194925090860190600101610ad5565b509098975050505050505050565b60008060408385031215610b6d57600080fd5b610b7683610a28565b946020939093013593505050565b608081526000610b976080830187610a66565b8281036020840152610ba98187610a66565b90508281036040840152610bbd8186610a66565b91505082606083015295945050505050565b60008083601f840112610be157600080fd5b50813567ffffffffffffffff811115610bf957600080fd5b602083019150836020828501011115610c1157600080fd5b9250929050565b60008060008060008060008060a0898b031215610c3457600080fd5b88359750602089013567ffffffffffffffff80821115610c5357600080fd5b610c5f8c838d01610bcf565b909950975060408b0135915080821115610c7857600080fd5b610c848c838d01610bcf565b909750955060608b0135915080821115610c9d57600080fd5b50610caa8b828c01610bcf565b999c989b50969995989497949560800135949350505050565b60008060008060008060006080888a031215610cde57600080fd5b873567ffffffffffffffff80821115610cf657600080fd5b610d028b838c01610bcf565b909950975060208a0135915080821115610d1b57600080fd5b610d278b838c01610bcf565b909750955060408a0135915080821115610d4057600080fd5b50610d4d8a828b01610bcf565b989b979a50959894979596606090950135949350505050565b600181811c90821680610d7a57607f821691505b602082108103610d9a57634e487b7160e01b600052602260045260246000fd5b50919050565b634e487b7160e01b600052603260045260246000fd5b634e487b7160e01b600052604160045260246000fd5b601f821115610e18576000816000526020600020601f850160051c81016020861015610df55750805b601f850160051c820191505b81811015610e1457828155600101610e01565b5050505b505050565b67ffffffffffffffff831115610e3557610e35610db6565b610e4983610e438354610d66565b83610dcc565b6000601f841160018114610e7d5760008515610e655750838201355b600019600387901b1c1916600186901b178355610ed7565b600083815260209020601f19861690835b82811015610eae5786850135825560209485019460019092019101610e8e565b5086821015610ecb5760001960f88860031b161c19848701351681555b505060018560011b0183555b5050505050565b815167ffffffffffffffff811115610ef857610ef8610db6565b610f0c81610f068454610d66565b84610dcc565b602080601f831160018114610f415760008415610f295750858301515b600019600386901b1c1916600185901b178555610e14565b600085815260208120601f198616915b82811015610f7057888601518255948401946001909101908401610f51565b5085821015610f8e5787850151600019600388901b60f8161c191681555b5050505050600190811b0190555056fea26469706673582212208a58a2643d7a5b4d3cd35bbafd98f2e41b26331d29a50e143e436dad7abaeb4d64736f6c63430008180033",
  "linkReferences": {},
  "deployedLinkReferences": {}
}