{
  "_format": "hh-sol-artifact-1",
  "contractName": "HaikuNFT",
  "sourceName": "contracts/13_HaikuNFT.sol",
  "abi": [
    {
      "inputs": [
        {
          "internalType": "string",
          "name": "_name",
          "type": "string"
        },
        {
          "internalType": "string",
          "name": "_symbol",
          "type": "string"
        }
      ],
      "stateMutability": "nonpayable",
      "type": "constructor"
    },
    {
      "inputs": [
        {
          "internalType": "address",
          "name": "sender",
          "type": "address"
        },
        {
          "internalType": "uint256",
          "name": "tokenId",
          "type": "uint256"
        },
        {
          "internalType": "address",
          "name": "owner",
          "type": "address"
        }
      ],
      "name": "ERC721IncorrectOwner",
      "type": "error"
    },
    {
      "inputs": [
        {
          "internalType": "address",
          "name": "operator",
          "type": "address"
        },
        {
          "internalType": "uint256",
          "name": "tokenId",
          "type": "uint256"
        }
      ],
      "name": "ERC721InsufficientApproval",
      "type": "error"
    },
    {
      "inputs": [
        {
          "internalType": "address",
          "name": "approver",
          "type": "address"
        }
      ],
      "name": "ERC721InvalidApprover",
      "type": "error"
    },
    {
      "inputs": [
        {
          "internalType": "address",
          "name": "operator",
          "type": "address"
        }
      ],
      "name": "ERC721InvalidOperator",
      "type": "error"
    },
    {
      "inputs": [
        {
          "internalType": "address",
          "name": "owner",
          "type": "address"
        }
      ],
      "name": "ERC721InvalidOwner",
      "type": "error"
    },
    {
      "inputs": [
        {
          "internalType": "address",
          "name": "receiver",
          "type": "address"
        }
      ],
      "name": "ERC721InvalidReceiver",
      "type": "error"
    },
    {
      "inputs": [
        {
          "internalType": "address",
          "name": "sender",
          "type": "address"
        }
      ],
      "name": "ERC721InvalidSender",
      "type": "error"
    },
    {
      "inputs": [
        {
          "internalType": "uint256",
          "name": "tokenId",
          "type": "uint256"
        }
      ],
      "name": "ERC721NonexistentToken",
      "type": "error"
    },
    {
      "inputs": [],
      "name": "HaikuNotUnique",
      "type": "error"
    },
    {
      "inputs": [],
      "name": "NoHaikusShared",
      "type": "error"
    },
    {
      "inputs": [],
      "name": "NotHaikuOwner",
      "type": "error"
    },
    {
      "anonymous": false,
      "inputs": [
        {
          "indexed": true,
          "internalType": "address",
          "name": "owner",
          "type": "address"
        },
        {
          "indexed": true,
          "internalType": "address",
          "name": "approved",
          "type": "address"
        },
        {
          "indexed": true,
          "internalType": "uint256",
          "name": "tokenId",
          "type": "uint256"
        }
      ],
      "name": "Approval",
      "type": "event"
    },
    {
      "anonymous": false,
      "inputs": [
        {
          "indexed": true,
          "internalType": "address",
          "name": "owner",
          "type": "address"
        },
        {
          "indexed": true,
          "internalType": "address",
          "name": "operator",
          "type": "address"
        },
        {
          "indexed": false,
          "internalType": "bool",
          "name": "approved",
          "type": "bool"
        }
      ],
      "name": "ApprovalForAll",
      "type": "event"
    },
    {
      "anonymous": false,
      "inputs": [
        {
          "indexed": true,
          "internalType": "address",
          "name": "from",
          "type": "address"
        },
        {
          "indexed": true,
          "internalType": "address",
          "name": "to",
          "type": "address"
        },
        {
          "indexed": true,
          "internalType": "uint256",
          "name": "tokenId",
          "type": "uint256"
        }
      ],
      "name": "Transfer",
      "type": "event"
    },
    {
      "inputs": [
        {
          "internalType": "address",
          "name": "to",
          "type": "address"
        },
        {
          "internalType": "uint256",
          "name": "tokenId",
          "type": "uint256"
        }
      ],
      "name": "approve",
      "outputs": [],
      "stateMutability": "nonpayable",
      "type": "function"
    },
    {
      "inputs": [
        {
          "internalType": "address",
          "name": "owner",
          "type": "address"
        }
      ],
      "name": "balanceOf",
      "outputs": [
        {
          "internalType": "uint256",
          "name": "",
          "type": "uint256"
        }
      ],
      "stateMutability": "view",
      "type": "function"
    },
    {
      "inputs": [],
      "name": "counter",
      "outputs": [
        {
          "internalType": "uint256",
          "name": "",
          "type": "uint256"
        }
      ],
      "stateMutability": "view",
      "type": "function"
    },
    {
      "inputs": [
        {
          "internalType": "uint256",
          "name": "tokenId",
          "type": "uint256"
        }
      ],
      "name": "getApproved",
      "outputs": [
        {
          "internalType": "address",
          "name": "",
          "type": "address"
        }
      ],
      "stateMutability": "view",
      "type": "function"
    },
    {
      "inputs": [],
      "name": "getMySharedHaikus",
      "outputs": [
        {
          "components": [
            {
              "internalType": "address",
              "name": "author",
              "type": "address"
            },
            {
              "internalType": "string",
              "name": "line1",
              "type": "string"
            },
            {
              "internalType": "string",
              "name": "line2",
              "type": "string"
            },
            {
              "internalType": "string",
              "name": "line3",
              "type": "string"
            }
          ],
          "internalType": "struct HaikuNFT.Haiku[]",
          "name": "",
          "type": "tuple[]"
        }
      ],
      "stateMutability": "view",
      "type": "function"
    },
    {
      "inputs": [
        {
          "internalType": "bytes32",
          "name": "",
          "type": "bytes32"
        }
      ],
      "name": "haikuLinesUsed",
      "outputs": [
        {
          "internalType": "bool",
          "name": "",
          "type": "bool"
        }
      ],
      "stateMutability": "view",
      "type": "function"
    },
    {
      "inputs": [
        {
          "internalType": "uint256",
          "name": "",
          "type": "uint256"
        }
      ],
      "name": "haikus",
      "outputs": [
        {
          "internalType": "address",
          "name": "author",
          "type": "address"
        },
        {
          "internalType": "string",
          "name": "line1",
          "type": "string"
        },
        {
          "internalType": "string",
          "name": "line2",
          "type": "string"
        },
        {
          "internalType": "string",
          "name": "line3",
          "type": "string"
        }
      ],
      "stateMutability": "view",
      "type": "function"
    },
    {
      "inputs": [
        {
          "internalType": "address",
          "name": "owner",
          "type": "address"
        },
        {
          "internalType": "address",
          "name": "operator",
          "type": "address"
        }
      ],
      "name": "isApprovedForAll",
      "outputs": [
        {
          "internalType": "bool",
          "name": "",
          "type": "bool"
        }
      ],
      "stateMutability": "view",
      "type": "function"
    },
    {
      "inputs": [
        {
          "internalType": "string",
          "name": "_line1",
          "type": "string"
        },
        {
          "internalType": "string",
          "name": "_line2",
          "type": "string"
        },
        {
          "internalType": "string",
          "name": "_line3",
          "type": "string"
        }
      ],
      "name": "mintHaiku",
      "outputs": [],
      "stateMutability": "nonpayable",
      "type": "function"
    },
    {
      "inputs": [],
      "name": "name",
      "outputs": [
        {
          "internalType": "string",
          "name": "",
          "type": "string"
        }
      ],
      "stateMutability": "view",
      "type": "function"
    },
    {
      "inputs": [
        {
          "internalType": "uint256",
          "name": "tokenId",
          "type": "uint256"
        }
      ],
      "name": "ownerOf",
      "outputs": [
        {
          "internalType": "address",
          "name": "",
          "type": "address"
        }
      ],
      "stateMutability": "view",
      "type": "function"
    },
    {
      "inputs": [
        {
          "internalType": "address",
          "name": "from",
          "type": "address"
        },
        {
          "internalType": "address",
          "name": "to",
          "type": "address"
        },
        {
          "internalType": "uint256",
          "name": "tokenId",
          "type": "uint256"
        }
      ],
      "name": "safeTransferFrom",
      "outputs": [],
      "stateMutability": "nonpayable",
      "type": "function"
    },
    {
      "inputs": [
        {
          "internalType": "address",
          "name": "from",
          "type": "address"
        },
        {
          "internalType": "address",
          "name": "to",
          "type": "address"
        },
        {
          "internalType": "uint256",
          "name": "tokenId",
          "type": "uint256"
        },
        {
          "internalType": "bytes",
          "name": "data",
          "type": "bytes"
        }
      ],
      "name": "safeTransferFrom",
      "outputs": [],
      "stateMutability": "nonpayable",
      "type": "function"
    },
    {
      "inputs": [
        {
          "internalType": "address",
          "name": "operator",
          "type": "address"
        },
        {
          "internalType": "bool",
          "name": "approved",
          "type": "bool"
        }
      ],
      "name": "setApprovalForAll",
      "outputs": [],
      "stateMutability": "nonpayable",
      "type": "function"
    },
    {
      "inputs": [
        {
          "internalType": "uint256",
          "name": "_tokenId",
          "type": "uint256"
        },
        {
          "internalType": "address",
          "name": "_to",
          "type": "address"
        }
      ],
      "name": "shareHaiku",
      "outputs": [],
      "stateMutability": "nonpayable",
      "type": "function"
    },
    {
      "inputs": [
        {
          "internalType": "address",
          "name": "",
          "type": "address"
        },
        {
          "internalType": "uint256",
          "name": "",
          "type": "uint256"
        }
      ],
      "name": "sharedHaikus",
      "outputs": [
        {
          "internalType": "uint256",
          "name": "",
          "type": "uint256"
        }
      ],
      "stateMutability": "view",
      "type": "function"
    },
    {
      "inputs": [
        {
          "internalType": "bytes4",
          "name": "interfaceId",
          "type": "bytes4"
        }
      ],
      "name": "supportsInterface",
      "outputs": [
        {
          "internalType": "bool",
          "name": "",
          "type": "bool"
        }
      ],
      "stateMutability": "view",
      "type": "function"
    },
    {
      "inputs": [],
      "name": "symbol",
      "outputs": [
        {
          "internalType": "string",
          "name": "",
          "type": "string"
        }
      ],
      "stateMutability": "view",
      "type": "function"
    },
    {
      "inputs": [
        {
          "internalType": "uint256",
          "name": "tokenId",
          "type": "uint256"
        }
      ],
      "name": "tokenURI",
      "outputs": [
        {
          "internalType": "string",
          "name": "",
          "type": "string"
        }
      ],
      "stateMutability": "view",
      "type": "function"
    },
    {
      "inputs": [
        {
          "internalType": "address",
          "name": "from",
          "type": "address"
        },
        {
          "internalType": "address",
          "name": "to",
          "type": "address"
        },
        {
          "internalType": "uint256",
          "name": "tokenId",
          "type": "uint256"
        }
      ],
      "name": "transferFrom",
      "outputs": [],
      "stateMutability": "nonpayable",
      "type": "function"
    }
  ],
  "bytecode": "0x60806040523480156200001157600080fd5b5060405162001f5638038062001f5683398101604081905262000034916200012c565b8181600062000044838262000227565b50600162000053828262000227565b5050600160095550620002f3915050565b634e487b7160e01b600052604160045260246000fd5b600082601f8301126200008c57600080fd5b81516001600160401b0380821115620000a957620000a962000064565b604051601f8301601f19908116603f01168101908282118183101715620000d457620000d462000064565b8160405283815260209250866020858801011115620000f257600080fd5b600091505b83821015620001165785820183015181830184015290820190620000f7565b6000602085830101528094505050505092915050565b600080604083850312156200014057600080fd5b82516001600160401b03808211156200015857600080fd5b62000166868387016200007a565b935060208501519150808211156200017d57600080fd5b506200018c858286016200007a565b9150509250929050565b600181811c90821680620001ab57607f821691505b602082108103620001cc57634e487b7160e01b600052602260045260246000fd5b50919050565b601f82111562000222576000816000526020600020601f850160051c81016020861015620001fd5750805b601f850160051c820191505b818110156200021e5782815560010162000209565b5050505b505050565b81516001600160401b0381111562000243576200024362000064565b6200025b8162000254845462000196565b84620001d2565b602080601f8311600181146200029357600084156200027a5750858301515b600019600386901b1c1916600185901b1785556200021e565b600085815260208120601f198616915b82811015620002c457888601518255948401946001909101908401620002a3565b5085821015620002e35787850151600019600388901b60f8161c191681555b5050505050600190811b01905550565b611c5380620003036000396000f3fe608060405234801561001057600080fd5b506004361061012c5760003560e01c80636352211e116100ad578063a22cb46511610071578063a22cb4651461028a578063b88d4fde1461029d578063c87b56dd146102b0578063e985e9c5146102c3578063f9bfb7c1146102d657600080fd5b80636352211e1461022657806370a08231146102395780637cb82b2a1461024c57806395d89b411461026f57806397afe82d1461027757600080fd5b80632c83ea56116100f45780632c83ea56146101c1578063350fe165146101d457806342842e0e146101e757806349af5bfe146101fa57806361bc221a1461020f57600080fd5b806301ffc9a71461013157806306fdde0314610159578063081812fc1461016e578063095ea7b31461019957806323b872dd146101ae575b600080fd5b61014461013f36600461153f565b6102f9565b60405190151581526020015b60405180910390f35b61016161034b565b60405161015091906115ac565b61018161017c3660046115bf565b6103dd565b6040516001600160a01b039091168152602001610150565b6101ac6101a73660046115f4565b610406565b005b6101ac6101bc36600461161e565b610415565b6101ac6101cf36600461165a565b6104a5565b6101ac6101e23660046116cf565b610500565b6101ac6101f536600461161e565b6107c9565b6102026107e9565b6040516101509190611769565b61021860095481565b604051908152602001610150565b6101816102343660046115bf565b610b46565b610218610247366004611822565b610b51565b61025f61025a3660046115bf565b610b99565b604051610150949392919061183d565b610161610d77565b6102186102853660046115f4565b610d86565b6101ac610298366004611892565b610db7565b6101ac6102ab3660046118e4565b610dc2565b6101616102be3660046115bf565b610dda565b6101446102d13660046119c0565b610e4f565b6101446102e43660046115bf565b60066020526000908152604090205460ff1681565b60006001600160e01b031982166380ac58cd60e01b148061032a57506001600160e01b03198216635b5e139f60e01b145b8061034557506301ffc9a760e01b6001600160e01b03198316145b92915050565b60606000805461035a906119ea565b80601f0160208091040260200160405190810160405280929190818152602001828054610386906119ea565b80156103d35780601f106103a8576101008083540402835291602001916103d3565b820191906000526020600020905b8154815290600101906020018083116103b657829003601f168201915b5050505050905090565b60006103e882610e7d565b506000828152600460205260409020546001600160a01b0316610345565b610411828233610eb6565b5050565b6001600160a01b03821661044457604051633250574960e11b8152600060048201526024015b60405180910390fd5b6000610451838333610ec3565b9050836001600160a01b0316816001600160a01b03161461049f576040516364283d7b60e01b81526001600160a01b038086166004830152602482018490528216604482015260640161043b565b50505050565b336104af83610b46565b6001600160a01b0316146104d65760405163e30f026960e01b815260040160405180910390fd5b6001600160a01b031660009081526008602090815260408220805460018101825590835291200155565b60008686604051602001610515929190611a24565b60405160208183030381529060405280519060200120905060008585604051602001610542929190611a24565b6040516020818303038152906040528051906020012090506000848460405160200161056f929190611a24565b60408051601f1981840301815291815281516020928301206000868152600690935291205490915060ff16806105b3575060008281526006602052604090205460ff165b806105cc575060008181526006602052604090205460ff165b156105ea5760405163349d444f60e11b815260040160405180910390fd5b60008381526006602090815260408083208054600160ff19918216811790925586855282852080548216831790558585528285208054909116909117905580516080810182523381528151601f8d018490048402810184019092528b82529182810191908d908d9081908401838280828437600092019190915250505090825250604080516020601f8c018190048102820181019092528a815291810191908b908b9081908401838280828437600092019190915250505090825250604080516020601f8a01819004810282018101909252888152918101919089908990819084018382808284376000920182905250939094525050600780546001810182559152825160049091027fa66cc928b5edb82af9bd49922954155ab7b0942694bea4ce44661d9a8736c688810180546001600160a01b039093166001600160a01b0319909316929092178255602084015193945084939192507fa66cc928b5edb82af9bd49922954155ab7b0942694bea4ce44661d9a8736c689019061076f9082611a7c565b50604082015160028201906107849082611a7c565b50606082015160038201906107999082611a7c565b5050506107a833600954610fbc565b600980549060006107b883611b52565b919050555050505050505050505050565b6107e483838360405180602001604052806000815250610dc2565b505050565b33600090815260086020908152604080832080548251818502810185019093528083526060949383018282801561083f57602002820191906000526020600020905b81548152602001906001019080831161082b575b505050505090506000815190508060000361086d5760405163f8826a6960e01b815260040160405180910390fd5b60008167ffffffffffffffff811115610888576108886118ce565b6040519080825280602002602001820160405280156108ed57816020015b6108da604051806080016040528060006001600160a01b031681526020016060815260200160608152602001606081525090565b8152602001906001900390816108a65790505b50905060005b82811015610b3e576007600185838151811061091157610911611b6b565b60200260200101516109239190611b81565b8154811061093357610933611b6b565b6000918252602091829020604080516080810190915260049092020180546001600160a01b031682526001810180549293919291840191610973906119ea565b80601f016020809104026020016040519081016040528092919081815260200182805461099f906119ea565b80156109ec5780601f106109c1576101008083540402835291602001916109ec565b820191906000526020600020905b8154815290600101906020018083116109cf57829003601f168201915b50505050508152602001600282018054610a05906119ea565b80601f0160208091040260200160405190810160405280929190818152602001828054610a31906119ea565b8015610a7e5780601f10610a5357610100808354040283529160200191610a7e565b820191906000526020600020905b815481529060010190602001808311610a6157829003601f168201915b50505050508152602001600382018054610a97906119ea565b80601f0160208091040260200160405190810160405280929190818152602001828054610ac3906119ea565b8015610b105780601f10610ae557610100808354040283529160200191610b10565b820191906000526020600020905b815481529060010190602001808311610af357829003601f168201915b505050505081525050828281518110610b2b57610b2b611b6b565b60209081029190910101526001016108f3565b509392505050565b600061034582610e7d565b60006001600160a01b038216610b7d576040516322718ad960e21b81526000600482015260240161043b565b506001600160a01b031660009081526003602052604090205490565b60078181548110610ba957600080fd5b6000918252602090912060049091020180546001820180546001600160a01b03909216935090610bd8906119ea565b80601f0160208091040260200160405190810160405280929190818152602001828054610c04906119ea565b8015610c515780601f10610c2657610100808354040283529160200191610c51565b820191906000526020600020905b815481529060010190602001808311610c3457829003601f168201915b505050505090806002018054610c66906119ea565b80601f0160208091040260200160405190810160405280929190818152602001828054610c92906119ea565b8015610cdf5780601f10610cb457610100808354040283529160200191610cdf565b820191906000526020600020905b815481529060010190602001808311610cc257829003601f168201915b505050505090806003018054610cf4906119ea565b80601f0160208091040260200160405190810160405280929190818152602001828054610d20906119ea565b8015610d6d5780601f10610d4257610100808354040283529160200191610d6d565b820191906000526020600020905b815481529060010190602001808311610d5057829003601f168201915b5050505050905084565b60606001805461035a906119ea565b60086020528160005260406000208181548110610da257600080fd5b90600052602060002001600091509150505481565b610411338383611021565b610dcd848484610415565b61049f33858585856110c0565b6060610de582610e7d565b506000610dfd60408051602081019091526000815290565b90506000815111610e1d5760405180602001604052806000815250610e48565b80610e27846111eb565b604051602001610e38929190611b94565b6040516020818303038152906040525b9392505050565b6001600160a01b03918216600090815260056020908152604080832093909416825291909152205460ff1690565b6000818152600260205260408120546001600160a01b03168061034557604051637e27328960e01b81526004810184905260240161043b565b6107e4838383600161127e565b6000828152600260205260408120546001600160a01b0390811690831615610ef057610ef0818486611384565b6001600160a01b03811615610f2e57610f0d60008560008061127e565b6001600160a01b038116600090815260036020526040902080546000190190555b6001600160a01b03851615610f5d576001600160a01b0385166000908152600360205260409020805460010190555b60008481526002602052604080822080546001600160a01b0319166001600160a01b0389811691821790925591518793918516917fddf252ad1be2c89b69c2b068fc378daa952ba7f163c4a11628f55a4df523b3ef91a4949350505050565b6001600160a01b038216610fe657604051633250574960e11b81526000600482015260240161043b565b6000610ff483836000610ec3565b90506001600160a01b038116156107e4576040516339e3563760e11b81526000600482015260240161043b565b6001600160a01b03821661105357604051630b61174360e31b81526001600160a01b038316600482015260240161043b565b6001600160a01b03838116600081815260056020908152604080832094871680845294825291829020805460ff191686151590811790915591519182527f17307eab39ab6107e8899845ad3d59bd9653f200f220920489ca2b5937696c31910160405180910390a3505050565b6001600160a01b0383163b156111e457604051630a85bd0160e11b81526001600160a01b0384169063150b7a0290611102908890889087908790600401611bc3565b6020604051808303816000875af192505050801561113d575060408051601f3d908101601f1916820190925261113a91810190611c00565b60015b6111a6573d80801561116b576040519150601f19603f3d011682016040523d82523d6000602084013e611170565b606091505b50805160000361119e57604051633250574960e11b81526001600160a01b038516600482015260240161043b565b805160208201fd5b6001600160e01b03198116630a85bd0160e11b146111e257604051633250574960e11b81526001600160a01b038516600482015260240161043b565b505b5050505050565b606060006111f8836113e8565b600101905060008167ffffffffffffffff811115611218576112186118ce565b6040519080825280601f01601f191660200182016040528015611242576020820181803683370190505b5090508181016020015b600019016f181899199a1a9b1b9c1cb0b131b232b360811b600a86061a8153600a850494508461124c57509392505050565b808061129257506001600160a01b03821615155b156113545760006112a284610e7d565b90506001600160a01b038316158015906112ce5750826001600160a01b0316816001600160a01b031614155b80156112e157506112df8184610e4f565b155b1561130a5760405163a9fbf51f60e01b81526001600160a01b038416600482015260240161043b565b81156113525783856001600160a01b0316826001600160a01b03167f8c5be1e5ebec7d5bd14f71427d1e84f3dd0314c0f7b2291e5b200ac8c7c3b92560405160405180910390a45b505b5050600090815260046020526040902080546001600160a01b0319166001600160a01b0392909216919091179055565b61138f8383836114c0565b6107e4576001600160a01b0383166113bd57604051637e27328960e01b81526004810182905260240161043b565b60405163177e802f60e01b81526001600160a01b03831660048201526024810182905260440161043b565b60008072184f03e93ff9f4daa797ed6e38ed64bf6a1f0160401b83106114275772184f03e93ff9f4daa797ed6e38ed64bf6a1f0160401b830492506040015b6d04ee2d6d415b85acef81000000008310611453576d04ee2d6d415b85acef8100000000830492506020015b662386f26fc10000831061147157662386f26fc10000830492506010015b6305f5e1008310611489576305f5e100830492506008015b612710831061149d57612710830492506004015b606483106114af576064830492506002015b600a83106103455760010192915050565b60006001600160a01b0383161580159061151e5750826001600160a01b0316846001600160a01b031614806114fa57506114fa8484610e4f565b8061151e57506000828152600460205260409020546001600160a01b038481169116145b949350505050565b6001600160e01b03198116811461153c57600080fd5b50565b60006020828403121561155157600080fd5b8135610e4881611526565b60005b8381101561157757818101518382015260200161155f565b50506000910152565b6000815180845261159881602086016020860161155c565b601f01601f19169290920160200192915050565b602081526000610e486020830184611580565b6000602082840312156115d157600080fd5b5035919050565b80356001600160a01b03811681146115ef57600080fd5b919050565b6000806040838503121561160757600080fd5b611610836115d8565b946020939093013593505050565b60008060006060848603121561163357600080fd5b61163c846115d8565b925061164a602085016115d8565b9150604084013590509250925092565b6000806040838503121561166d57600080fd5b8235915061167d602084016115d8565b90509250929050565b60008083601f84011261169857600080fd5b50813567ffffffffffffffff8111156116b057600080fd5b6020830191508360208285010111156116c857600080fd5b9250929050565b600080600080600080606087890312156116e857600080fd5b863567ffffffffffffffff8082111561170057600080fd5b61170c8a838b01611686565b9098509650602089013591508082111561172557600080fd5b6117318a838b01611686565b9096509450604089013591508082111561174a57600080fd5b5061175789828a01611686565b979a9699509497509295939492505050565b600060208083018184528085518083526040925060408601915060408160051b87010184880160005b8381101561181457888303603f19018552815180516001600160a01b03168452878101516080898601819052906117cb82870182611580565b91505087820151858203898701526117e38282611580565b915050606080830151925085820381870152506118008183611580565b968901969450505090860190600101611792565b509098975050505050505050565b60006020828403121561183457600080fd5b610e48826115d8565b6001600160a01b038516815260806020820181905260009061186190830186611580565b82810360408401526118738186611580565b905082810360608401526118878185611580565b979650505050505050565b600080604083850312156118a557600080fd5b6118ae836115d8565b9150602083013580151581146118c357600080fd5b809150509250929050565b634e487b7160e01b600052604160045260246000fd5b600080600080608085870312156118fa57600080fd5b611903856115d8565b9350611911602086016115d8565b925060408501359150606085013567ffffffffffffffff8082111561193557600080fd5b818701915087601f83011261194957600080fd5b81358181111561195b5761195b6118ce565b604051601f8201601f19908116603f01168101908382118183101715611983576119836118ce565b816040528281528a602084870101111561199c57600080fd5b82602086016020830137600060208483010152809550505050505092959194509250565b600080604083850312156119d357600080fd5b6119dc836115d8565b915061167d602084016115d8565b600181811c908216806119fe57607f821691505b602082108103611a1e57634e487b7160e01b600052602260045260246000fd5b50919050565b8183823760009101908152919050565b601f8211156107e4576000816000526020600020601f850160051c81016020861015611a5d5750805b601f850160051c820191505b818110156111e257828155600101611a69565b815167ffffffffffffffff811115611a9657611a966118ce565b611aaa81611aa484546119ea565b84611a34565b602080601f831160018114611adf5760008415611ac75750858301515b600019600386901b1c1916600185901b1785556111e2565b600085815260208120601f198616915b82811015611b0e57888601518255948401946001909101908401611aef565b5085821015611b2c5787850151600019600388901b60f8161c191681555b5050505050600190811b01905550565b634e487b7160e01b600052601160045260246000fd5b600060018201611b6457611b64611b3c565b5060010190565b634e487b7160e01b600052603260045260246000fd5b8181038181111561034557610345611b3c565b60008351611ba681846020880161155c565b835190830190611bba81836020880161155c565b01949350505050565b6001600160a01b0385811682528416602082015260408101839052608060608201819052600090611bf690830184611580565b9695505050505050565b600060208284031215611c1257600080fd5b8151610e488161152656fea26469706673582212208076b9eb18ba8307d18d534efe862d4221e18d31a7bb2123396392b7d8674f7864736f6c63430008180033",
  "linkReferences": {},
  "deployedLinkReferences": {}
}