{
  "_format": "hh-sol-artifact-1",
  "contractName": "ImportsExercise",
  "sourceName": "contracts/08_ImportsExercise.sol",
  "abi": [
    {
      "inputs": [],
      "name": "getHaiku",
      "outputs": [
        {
          "components": [
            {
              "internalType": "string",
              "name": "line1",
              "type": "string"
            },
            {
              "internalType": "string",
              "name": "line2",
              "type": "string"
            },
            {
              "internalType": "string",
              "name": "line3",
              "type": "string"
            }
          ],
          "internalType": "struct SillyStringUtils.Haiku",
          "name": "",
          "type": "tuple"
        }
      ],
      "stateMutability": "view",
      "type": "function"
    },
    {
      "inputs": [],
      "name": "haiku",
      "outputs": [
        {
          "internalType": "string",
          "name": "line1",
          "type": "string"
        },
        {
          "internalType": "string",
          "name": "line2",
          "type": "string"
        },
        {
          "internalType": "string",
          "name": "line3",
          "type": "string"
        }
      ],
      "stateMutability": "view",
      "type": "function"
    },
    {
      "inputs": [
        {
          "internalType": "string",
          "name": "_line1",
          "type": "string"
        },
        {
          "internalType": "string",
          "name": "_line2",
          "type": "string"
        },
        {
          "internalType": "string",
          "name": "_line3",
          "type": "string"
        }
      ],
      "name": "saveHaiku",
      "outputs": [],
      "stateMutability": "nonpayable",
      "type": "function"
    },
    {
      "inputs": [],
      "name": "shruggieHaiku",
      "outputs": [
        {
          "components": [
            {
              "internalType": "string",
              "name": "line1",
              "type": "string"
            },
            {
              "internalType": "string",
              "name": "line2",
              "type": "string"
            },
            {
              "internalType": "string",
              "name": "line3",
              "type": "string"
            }
          ],
          "internalType": "struct SillyStringUtils.Haiku",
          "name": "",
          "type": "tuple"
        }
      ],
      "stateMutability": "view",
      "type": "function"
    }
  ],
  "bytecode": "0x608060405234801561001057600080fd5b50610a21806100206000396000f3fe608060405234801561001057600080fd5b506004361061004c5760003560e01c806325eb69a914610051578063583dc7691461006f578063728d3c07146100845780638346cbef1461009b575b600080fd5b6100596100a3565b60405161006691906106d9565b60405180910390f35b61008261007d366004610783565b61028f565b005b61008c6102c1565b6040516100669392919061081d565b61005961046f565b6100c760405180606001604052806060815260200160608152602001606081525090565b60006040518060600160405290816000820180546100e490610860565b80601f016020809104026020016040519081016040528092919081815260200182805461011090610860565b801561015d5780601f106101325761010080835404028352916020019161015d565b820191906000526020600020905b81548152906001019060200180831161014057829003601f168201915b5050505050815260200160018201805461017690610860565b80601f01602080910402602001604051908101604052809291908181526020018280546101a290610860565b80156101ef5780601f106101c4576101008083540402835291602001916101ef565b820191906000526020600020905b8154815290600101906020018083116101d257829003601f168201915b5050505050815260200160028201805461020890610860565b80601f016020809104026020016040519081016040528092919081815260200182805461023490610860565b80156102815780601f1061025657610100808354040283529160200191610281565b820191906000526020600020905b81548152906001019060200180831161026457829003601f168201915b505050505081525050905090565b600061029c868883610901565b5060016102aa848683610901565b5060026102b8828483610901565b50505050505050565b6000805481906102d090610860565b80601f01602080910402602001604051908101604052809291908181526020018280546102fc90610860565b80156103495780601f1061031e57610100808354040283529160200191610349565b820191906000526020600020905b81548152906001019060200180831161032c57829003601f168201915b50505050509080600101805461035e90610860565b80601f016020809104026020016040519081016040528092919081815260200182805461038a90610860565b80156103d75780601f106103ac576101008083540402835291602001916103d7565b820191906000526020600020905b8154815290600101906020018083116103ba57829003601f168201915b5050505050908060020180546103ec90610860565b80601f016020809104026020016040519081016040528092919081815260200182805461041890610860565b80156104655780601f1061043a57610100808354040283529160200191610465565b820191906000526020600020905b81548152906001019060200180831161044857829003601f168201915b5050505050905083565b61049360405180606001604052806060815260200160608152602001606081525090565b60405180606001604052806000800180546104ad90610860565b80601f01602080910402602001604051908101604052809291908181526020018280546104d990610860565b80156105265780601f106104fb57610100808354040283529160200191610526565b820191906000526020600020905b81548152906001019060200180831161050957829003601f168201915b505050505081526020016000600101805461054090610860565b80601f016020809104026020016040519081016040528092919081815260200182805461056c90610860565b80156105b95780601f1061058e576101008083540402835291602001916105b9565b820191906000526020600020905b81548152906001019060200180831161059c57829003601f168201915b50505050508152602001610659600060020180546105d690610860565b80601f016020809104026020016040519081016040528092919081815260200182805461060290610860565b801561064f5780601f106106245761010080835404028352916020019161064f565b820191906000526020600020905b81548152906001019060200180831161063257829003601f168201915b5050505050610660565b9052919050565b60608160405160200161067391906109c2565b6040516020818303038152906040529050919050565b60005b838110156106a457818101518382015260200161068c565b50506000910152565b600081518084526106c5816020860160208601610689565b601f01601f19169290920160200192915050565b6020815260008251606060208401526106f560808401826106ad565b90506020840151601f198085840301604086015261071383836106ad565b925060408601519150808584030160608601525061073182826106ad565b95945050505050565b60008083601f84011261074c57600080fd5b50813567ffffffffffffffff81111561076457600080fd5b60208301915083602082850101111561077c57600080fd5b9250929050565b6000806000806000806060878903121561079c57600080fd5b863567ffffffffffffffff808211156107b457600080fd5b6107c08a838b0161073a565b909850965060208901359150808211156107d957600080fd5b6107e58a838b0161073a565b909650945060408901359150808211156107fe57600080fd5b5061080b89828a0161073a565b979a9699509497509295939492505050565b60608152600061083060608301866106ad565b828103602084015261084281866106ad565b9050828103604084015261085681856106ad565b9695505050505050565b600181811c9082168061087457607f821691505b60208210810361089457634e487b7160e01b600052602260045260246000fd5b50919050565b634e487b7160e01b600052604160045260246000fd5b601f8211156108fc576000816000526020600020601f850160051c810160208610156108d95750805b601f850160051c820191505b818110156108f8578281556001016108e5565b5050505b505050565b67ffffffffffffffff8311156109195761091961089a565b61092d836109278354610860565b836108b0565b6000601f84116001811461096157600085156109495750838201355b600019600387901b1c1916600186901b1783556109bb565b600083815260209020601f19861690835b828110156109925786850135825560209485019460019092019101610972565b50868210156109af5760001960f88860031b161c19848701351681555b505060018560011b0183555b5050505050565b600082516109d4818460208701610689565b6420f09fa4b760d81b92019182525060050191905056fea2646970667358221220158ee4f552667d669a10146f0806fda71448341e78833a0cedd2b4ea0cfd700264736f6c63430008180033",
  "linkReferences": {},
  "deployedLinkReferences": {}
}