{
  "_format": "hh-sol-artifact-1",
  "contractName": "UnburnableToken",
  "sourceName": "contracts/11_UnburnableToken.sol",
  "abi": [
    {
      "inputs": [],
      "stateMutability": "nonpayable",
      "type": "constructor"
    },
    {
      "inputs": [],
      "name": "AllTokensClaimed",
      "type": "error"
    },
    {
      "inputs": [],
      "name": "TokensClaimed",
      "type": "error"
    },
    {
      "inputs": [
        {
          "internalType": "address",
          "name": "",
          "type": "address"
        }
      ],
      "name": "UnsafeTransfer",
      "type": "error"
    },
    {
      "inputs": [
        {
          "internalType": "uint256",
          "name": "_totalSupply",
          "type": "uint256"
        }
      ],
      "name": "_setTotalSupply",
      "outputs": [],
      "stateMutability": "nonpayable",
      "type": "function"
    },
    {
      "inputs": [
        {
          "internalType": "address",
          "name": "",
          "type": "address"
        }
      ],
      "name": "balances",
      "outputs": [
        {
          "internalType": "uint256",
          "name": "",
          "type": "uint256"
        }
      ],
      "stateMutability": "view",
      "type": "function"
    },
    {
      "inputs": [],
      "name": "claim",
      "outputs": [],
      "stateMutability": "nonpayable",
      "type": "function"
    },
    {
      "inputs": [
        {
          "internalType": "address",
          "name": "_to",
          "type": "address"
        },
        {
          "internalType": "uint256",
          "name": "amount",
          "type": "uint256"
        }
      ],
      "name": "safeTransfer",
      "outputs": [],
      "stateMutability": "nonpayable",
      "type": "function"
    },
    {
      "inputs": [],
      "name": "totalClaimed",
      "outputs": [
        {
          "internalType": "uint256",
          "name": "",
          "type": "uint256"
        }
      ],
      "stateMutability": "view",
      "type": "function"
    },
    {
      "inputs": [],
      "name": "totalSupply",
      "outputs": [
        {
          "internalType": "uint256",
          "name": "",
          "type": "uint256"
        }
      ],
      "stateMutability": "view",
      "type": "function"
    }
  ],
  "bytecode": "0x608060405234801561001057600080fd5b506305f5e100600055610347806100286000396000f3fe608060405234801561001057600080fd5b50600436106100625760003560e01c8063017838eb1461006757806318160ddd1461007c57806327e235e314610097578063423f6cef146100b75780634e71d92d146100ca578063d54ad2a1146100d2575b600080fd5b61007a61007536600461024e565b600055565b005b61008560005481565b60405190815260200160405180910390f35b6100856100a5366004610283565b60026020526000908152604090205481565b61007a6100c53660046102a5565b6100db565b61007a610194565b61008560015481565b6001600160a01b03821615806100f957506001600160a01b03821631155b8061011257503360009081526002602052604090205481115b1561013f57604051631aa1b49360e21b81526001600160a01b038316600482015260240160405180910390fd5b336000908152600260205260408120805483929061015e9084906102e5565b90915550506001600160a01b0382166000908152600260205260408120805483929061018b9084906102fe565b90915550505050565b3360009081526003602052604090205460ff16156101c55760405163058993d360e11b815260040160405180910390fd5b6000546001546101d7906103e86102fe565b11156101f65760405163cbe2483160e01b815260040160405180910390fd5b336000908152600360209081526040808320805460ff191660011790556002909152812080546103e8929061022c9084906102fe565b925050819055506103e86001600082825461024791906102fe565b9091555050565b60006020828403121561026057600080fd5b5035919050565b80356001600160a01b038116811461027e57600080fd5b919050565b60006020828403121561029557600080fd5b61029e82610267565b9392505050565b600080604083850312156102b857600080fd5b6102c183610267565b946020939093013593505050565b634e487b7160e01b600052601160045260246000fd5b818103818111156102f8576102f86102cf565b92915050565b808201808211156102f8576102f86102cf56fea264697066735822122079c06fdaefccf11b33695c2fd079a6e4a55b7d8bc30ee2254595160d8ff5881d64736f6c63430008180033",
  "linkReferences": {},
  "deployedLinkReferences": {}
}