{
  "_format": "hh-sol-artifact-1",
  "contractName": "WeightedVoting",
  "sourceName": "contracts/12_WeightedVoting.sol",
  "abi": [
    {
      "inputs": [
        {
          "internalType": "string",
          "name": "name_",
          "type": "string"
        },
        {
          "internalType": "string",
          "name": "symbol_",
          "type": "string"
        }
      ],
      "stateMutability": "nonpayable",
      "type": "constructor"
    },
    {
      "inputs": [],
      "name": "AllTokensClaimed",
      "type": "error"
    },
    {
      "inputs": [],
      "name": "AlreadyVoted",
      "type": "error"
    },
    {
      "inputs": [
        {
          "internalType": "address",
          "name": "spender",
          "type": "address"
        },
        {
          "internalType": "uint256",
          "name": "allowance",
          "type": "uint256"
        },
        {
          "internalType": "uint256",
          "name": "needed",
          "type": "uint256"
        }
      ],
      "name": "ERC20InsufficientAllowance",
      "type": "error"
    },
    {
      "inputs": [
        {
          "internalType": "address",
          "name": "sender",
          "type": "address"
        },
        {
          "internalType": "uint256",
          "name": "balance",
          "type": "uint256"
        },
        {
          "internalType": "uint256",
          "name": "needed",
          "type": "uint256"
        }
      ],
      "name": "ERC20InsufficientBalance",
      "type": "error"
    },
    {
      "inputs": [
        {
          "internalType": "address",
          "name": "approver",
          "type": "address"
        }
      ],
      "name": "ERC20InvalidApprover",
      "type": "error"
    },
    {
      "inputs": [
        {
          "internalType": "address",
          "name": "receiver",
          "type": "address"
        }
      ],
      "name": "ERC20InvalidReceiver",
      "type": "error"
    },
    {
      "inputs": [
        {
          "internalType": "address",
          "name": "sender",
          "type": "address"
        }
      ],
      "name": "ERC20InvalidSender",
      "type": "error"
    },
    {
      "inputs": [
        {
          "internalType": "address",
          "name": "spender",
          "type": "address"
        }
      ],
      "name": "ERC20InvalidSpender",
      "type": "error"
    },
    {
      "inputs": [],
      "name": "NoTokensHeld",
      "type": "error"
    },
    {
      "inputs": [
        {
          "internalType": "uint256",
          "name": "quorum",
          "type": "uint256"
        }
      ],
      "name": "QuorumTooHigh",
      "type": "error"
    },
    {
      "inputs": [],
      "name": "TokensClaimed",
      "type": "error"
    },
    {
      "inputs": [],
      "name": "VotingClosed",
      "type": "error"
    },
    {
      "anonymous": false,
      "inputs": [
        {
          "indexed": true,
          "internalType": "address",
          "name": "owner",
          "type": "address"
        },
        {
          "indexed": true,
          "internalType": "address",
          "name": "spender",
          "type": "address"
        },
        {
          "indexed": false,
          "internalType": "uint256",
          "name": "value",
          "type": "uint256"
        }
      ],
      "name": "Approval",
      "type": "event"
    },
    {
      "anonymous": false,
      "inputs": [
        {
          "indexed": true,
          "internalType": "address",
          "name": "from",
          "type": "address"
        },
        {
          "indexed": true,
          "internalType": "address",
          "name": "to",
          "type": "address"
        },
        {
          "indexed": false,
          "internalType": "uint256",
          "name": "value",
          "type": "uint256"
        }
      ],
      "name": "Transfer",
      "type": "event"
    },
    {
      "inputs": [
        {
          "internalType": "address",
          "name": "owner",
          "type": "address"
        },
        {
          "internalType": "address",
          "name": "spender",
          "type": "address"
        }
      ],
      "name": "allowance",
      "outputs": [
        {
          "internalType": "uint256",
          "name": "",
          "type": "uint256"
        }
      ],
      "stateMutability": "view",
      "type": "function"
    },
    {
      "inputs": [
        {
          "internalType": "address",
          "name": "spender",
          "type": "address"
        },
        {
          "internalType": "uint256",
          "name": "value",
          "type": "uint256"
        }
      ],
      "name": "approve",
      "outputs": [
        {
          "internalType": "bool",
          "name": "",
          "type": "bool"
        }
      ],
      "stateMutability": "nonpayable",
      "type": "function"
    },
    {
      "inputs": [
        {
          "internalType": "address",
          "name": "account",
          "type": "address"
        }
      ],
      "name": "balanceOf",
      "outputs": [
        {
          "internalType": "uint256",
          "name": "",
          "type": "uint256"
        }
      ],
      "stateMutability": "view",
      "type": "function"
    },
    {
      "inputs": [],
      "name": "claim",
      "outputs": [],
      "stateMutability": "nonpayable",
      "type": "function"
    },
    {
      "inputs": [
        {
          "internalType": "string",
          "name": "_issueDesc",
          "type": "string"
        },
        {
          "internalType": "uint256",
          "name": "_quorum",
          "type": "uint256"
        }
      ],
      "name": "createIssue",
      "outputs": [
        {
          "internalType": "uint256",
          "name": "",
          "type": "uint256"
        }
      ],
      "stateMutability": "nonpayable",
      "type": "function"
    },
    {
      "inputs": [],
      "name": "decimals",
      "outputs": [
        {
          "internalType": "uint8",
          "name": "",
          "type": "uint8"
        }
      ],
      "stateMutability": "view",
      "type": "function"
    },
    {
      "inputs": [
        {
          "internalType": "uint256",
          "name": "_id",
          "type": "uint256"
        }
      ],
      "name": "getIssue",
      "outputs": [
        {
          "components": [
            {
              "internalType": "address[]",
              "name": "voters",
              "type": "address[]"
            },
            {
              "internalType": "string",
              "name": "issueDesc",
              "type": "string"
            },
            {
              "internalType": "uint256",
              "name": "quorum",
              "type": "uint256"
            },
            {
              "internalType": "uint256",
              "name": "totalVotes",
              "type": "uint256"
            },
            {
              "internalType": "uint256",
              "name": "votesFor",
              "type": "uint256"
            },
            {
              "internalType": "uint256",
              "name": "votesAgainst",
              "type": "uint256"
            },
            {
              "internalType": "uint256",
              "name": "votesAbstain",
              "type": "uint256"
            },
            {
              "internalType": "bool",
              "name": "passed",
              "type": "bool"
            },
            {
              "internalType": "bool",
              "name": "closed",
              "type": "bool"
            }
          ],
          "internalType": "struct WeightedVoting.FormattedIssue",
          "name": "",
          "type": "tuple"
        }
      ],
      "stateMutability": "view",
      "type": "function"
    },
    {
      "inputs": [],
      "name": "name",
      "outputs": [
        {
          "internalType": "string",
          "name": "",
          "type": "string"
        }
      ],
      "stateMutability": "view",
      "type": "function"
    },
    {
      "inputs": [],
      "name": "symbol",
      "outputs": [
        {
          "internalType": "string",
          "name": "",
          "type": "string"
        }
      ],
      "stateMutability": "view",
      "type": "function"
    },
    {
      "inputs": [],
      "name": "totalSupply",
      "outputs": [
        {
          "internalType": "uint256",
          "name": "",
          "type": "uint256"
        }
      ],
      "stateMutability": "view",
      "type": "function"
    },
    {
      "inputs": [
        {
          "internalType": "address",
          "name": "to",
          "type": "address"
        },
        {
          "internalType": "uint256",
          "name": "value",
          "type": "uint256"
        }
      ],
      "name": "transfer",
      "outputs": [
        {
          "internalType": "bool",
          "name": "",
          "type": "bool"
        }
      ],
      "stateMutability": "nonpayable",
      "type": "function"
    },
    {
      "inputs": [
        {
          "internalType": "address",
          "name": "from",
          "type": "address"
        },
        {
          "internalType": "address",
          "name": "to",
          "type": "address"
        },
        {
          "internalType": "uint256",
          "name": "value",
          "type": "uint256"
        }
      ],
      "name": "transferFrom",
      "outputs": [
        {
          "internalType": "bool",
          "name": "",
          "type": "bool"
        }
      ],
      "stateMutability": "nonpayable",
      "type": "function"
    },
    {
      "inputs": [
        {
          "internalType": "uint256",
          "name": "_issueId",
          "type": "uint256"
        },
        {
          "internalType": "enum WeightedVoting.Vote",
          "name": "_vote",
          "type": "uint8"
        }
      ],
      "name": "vote",
      "outputs": [],
      "stateMutability": "nonpayable",
      "type": "function"
    }
  ],
  "bytecode": "0x608060405260006005553480156200001657600080fd5b50604051620013e1380380620013e18339810160408190526200003991620001c1565b81816003620000498382620002bc565b506004620000588282620002bc565b505060068054600181018255600091909152604080518082019091526005815264189d5c9b9d60da1b602082015260099091027ff652222313e28459528d920b65115c16c04f3efc82aaedc97be59f3f377c0d3f810192507ff652222313e28459528d920b65115c16c04f3efc82aaedc97be59f3f377c0d410190620000df9082620002bc565b50600801805461ff00191661010017905550620003889050565b634e487b7160e01b600052604160045260246000fd5b600082601f8301126200012157600080fd5b81516001600160401b03808211156200013e576200013e620000f9565b604051601f8301601f19908116603f01168101908282118183101715620001695762000169620000f9565b81604052838152602092508660208588010111156200018757600080fd5b600091505b83821015620001ab57858201830151818301840152908201906200018c565b6000602085830101528094505050505092915050565b60008060408385031215620001d557600080fd5b82516001600160401b0380821115620001ed57600080fd5b620001fb868387016200010f565b935060208501519150808211156200021257600080fd5b5062000221858286016200010f565b9150509250929050565b600181811c908216806200024057607f821691505b6020821081036200026157634e487b7160e01b600052602260045260246000fd5b50919050565b601f821115620002b7576000816000526020600020601f850160051c81016020861015620002925750805b601f850160051c820191505b81811015620002b3578281556001016200029e565b5050505b505050565b81516001600160401b03811115620002d857620002d8620000f9565b620002f081620002e984546200022b565b8462000267565b602080601f8311600181146200032857600084156200030f5750858301515b600019600386901b1c1916600185901b178555620002b3565b600085815260208120601f198616915b82811015620003595788860151825594840194600190910190840162000338565b5085821015620003785787850151600019600388901b60f8161c191681555b5050505050600190811b01905550565b61104980620003986000396000f3fe608060405234801561001057600080fd5b50600436106100cf5760003560e01c806370a082311161008c57806395d89b411161006657806395d89b41146101a2578063976b3113146101aa578063a9059cbb146101ca578063dd62ed3e146101dd57600080fd5b806370a08231146101535780638615d8551461017c578063943e82161461018f57600080fd5b806306fdde03146100d4578063095ea7b3146100f257806318160ddd1461011557806323b872dd14610127578063313ce5671461013a5780634e71d92d14610149575b600080fd5b6100dc610216565b6040516100e99190610be0565b60405180910390f35b610105610100366004610c0f565b6102a8565b60405190151581526020016100e9565b6002545b6040519081526020016100e9565b610105610135366004610c39565b6102c2565b604051601281526020016100e9565b6101516102e6565b005b610119610161366004610c75565b6001600160a01b031660009081526020819052604090205490565b61011961018a366004610c90565b61037b565b61015161019d366004610d08565b610450565b6100dc6105e7565b6101bd6101b8366004610d3c565b6105f6565b6040516100e99190610d9a565b6101056101d8366004610c0f565b610777565b6101196101eb366004610e32565b6001600160a01b03918216600090815260016020908152604080832093909416825291909152205490565b60606003805461022590610e65565b80601f016020809104026020016040519081016040528092919081815260200182805461025190610e65565b801561029e5780601f106102735761010080835404028352916020019161029e565b820191906000526020600020905b81548152906001019060200180831161028157829003601f168201915b5050505050905090565b6000336102b6818585610785565b60019150505b92915050565b6000336102d0858285610797565b6102db858585610810565b506001949350505050565b3360009081526007602052604090205460ff16156103175760405163058993d360e11b815260040160405180910390fd5b620f42406005541061033c5760405163cbe2483160e01b815260040160405180910390fd5b336000818152600760205260409020805460ff1916600117905561036190606461086f565b6064600560008282546103749190610e9f565b9091555050565b336000908152602081905260408120546000036103ab57604051638439960d60e01b815260040160405180910390fd5b6002548211156103d657604051632c4d24a960e11b8152600481018390526024015b60405180910390fd5b600680546001810182556000919091526009027ff652222313e28459528d920b65115c16c04f3efc82aaedc97be59f3f377c0d3f8101907ff652222313e28459528d920b65115c16c04f3efc82aaedc97be59f3f377c0d410161043a858783610f26565b5060030182905550600654600019019392505050565b60006006838154811061046557610465610fe7565b906000526020600020906009020190508060080160019054906101000a900460ff16156104a55760405163335b65a560e11b815260040160405180910390fd5b6104af81336108a9565b156104cd57604051637c9a1cf960e01b815260040160405180910390fd5b33600090815260208190526040812054908190036104fe57604051638439960d60e01b815260040160405180910390fd5b61050882336108ce565b50600083600281111561051d5761051d610ffd565b0361054157808260060160008282546105369190610e9f565b909155506105889050565b600183600281111561055557610555610ffd565b0361056e57808260050160008282546105369190610e9f565b808260070160008282546105829190610e9f565b90915550505b8082600401600082825461059c9190610e9f565b909155505060038201546004830154106105e15760088201805461ff0019166101001790556006820154600583015411156105e15760088201805460ff191660011790555b50505050565b60606004805461022590610e65565b610649604051806101200160405280606081526020016060815260200160008152602001600081526020016000815260200160008152602001600081526020016000151581526020016000151581525090565b60006006838154811061065e5761065e610fe7565b90600052602060002090600902019050604051806101200160405280610686836000016108e3565b815260200182600201805461069a90610e65565b80601f01602080910402602001604051908101604052809291908181526020018280546106c690610e65565b80156107135780601f106106e857610100808354040283529160200191610713565b820191906000526020600020905b8154815290600101906020018083116106f657829003601f168201915b505050918352505060038301546020820152600483015460408201526005830154606082015260068301546080820152600783015460a082015260089092015460ff808216151560c085015261010090910416151560e09092019190915292915050565b6000336102b6818585610810565b61079283838360016108f0565b505050565b6001600160a01b038381166000908152600160209081526040808320938616835292905220546000198110156105e1578181101561080157604051637dc7a0d960e11b81526001600160a01b038416600482015260248101829052604481018390526064016103cd565b6105e1848484840360006108f0565b6001600160a01b03831661083a57604051634b637e8f60e11b8152600060048201526024016103cd565b6001600160a01b0382166108645760405163ec442f0560e01b8152600060048201526024016103cd565b6107928383836109c5565b6001600160a01b0382166108995760405163ec442f0560e01b8152600060048201526024016103cd565b6108a5600083836109c5565b5050565b6001600160a01b038116600090815260018301602052604081205415155b9392505050565b60006108c7836001600160a01b038416610aef565b606060006108c783610b3e565b6001600160a01b03841661091a5760405163e602df0560e01b8152600060048201526024016103cd565b6001600160a01b03831661094457604051634a1406b160e11b8152600060048201526024016103cd565b6001600160a01b03808516600090815260016020908152604080832093871683529290522082905580156105e157826001600160a01b0316846001600160a01b03167f8c5be1e5ebec7d5bd14f71427d1e84f3dd0314c0f7b2291e5b200ac8c7c3b925846040516109b791815260200190565b60405180910390a350505050565b6001600160a01b0383166109f05780600260008282546109e59190610e9f565b90915550610a629050565b6001600160a01b03831660009081526020819052604090205481811015610a435760405163391434e360e21b81526001600160a01b038516600482015260248101829052604481018390526064016103cd565b6001600160a01b03841660009081526020819052604090209082900390555b6001600160a01b038216610a7e57600280548290039055610a9d565b6001600160a01b03821660009081526020819052604090208054820190555b816001600160a01b0316836001600160a01b03167fddf252ad1be2c89b69c2b068fc378daa952ba7f163c4a11628f55a4df523b3ef83604051610ae291815260200190565b60405180910390a3505050565b6000818152600183016020526040812054610b36575081546001818101845560008481526020808220909301849055845484825282860190935260409020919091556102bc565b5060006102bc565b606081600001805480602002602001604051908101604052809291908181526020018280548015610b8e57602002820191906000526020600020905b815481526020019060010190808311610b7a575b50505050509050919050565b6000815180845260005b81811015610bc057602081850181015186830182015201610ba4565b506000602082860101526020601f19601f83011685010191505092915050565b6020815260006108c76020830184610b9a565b80356001600160a01b0381168114610c0a57600080fd5b919050565b60008060408385031215610c2257600080fd5b610c2b83610bf3565b946020939093013593505050565b600080600060608486031215610c4e57600080fd5b610c5784610bf3565b9250610c6560208501610bf3565b9150604084013590509250925092565b600060208284031215610c8757600080fd5b6108c782610bf3565b600080600060408486031215610ca557600080fd5b833567ffffffffffffffff80821115610cbd57600080fd5b818601915086601f830112610cd157600080fd5b813581811115610ce057600080fd5b876020828501011115610cf257600080fd5b6020928301989097509590910135949350505050565b60008060408385031215610d1b57600080fd5b82359150602083013560038110610d3157600080fd5b809150509250929050565b600060208284031215610d4e57600080fd5b5035919050565b60008151808452602080850194506020840160005b83811015610d8f5781516001600160a01b031687529582019590820190600101610d6a565b509495945050505050565b6020815260008251610120806020850152610db9610140850183610d55565b91506020850151601f19858403016040860152610dd68382610b9a565b9250506040850151606085015260608501516080850152608085015160a085015260a085015160c085015260c085015160e085015260e0850151610100610e208187018315159052565b90950151151593019290925250919050565b60008060408385031215610e4557600080fd5b610e4e83610bf3565b9150610e5c60208401610bf3565b90509250929050565b600181811c90821680610e7957607f821691505b602082108103610e9957634e487b7160e01b600052602260045260246000fd5b50919050565b808201808211156102bc57634e487b7160e01b600052601160045260246000fd5b634e487b7160e01b600052604160045260246000fd5b601f821115610792576000816000526020600020601f850160051c81016020861015610eff5750805b601f850160051c820191505b81811015610f1e57828155600101610f0b565b505050505050565b67ffffffffffffffff831115610f3e57610f3e610ec0565b610f5283610f4c8354610e65565b83610ed6565b6000601f841160018114610f865760008515610f6e5750838201355b600019600387901b1c1916600186901b178355610fe0565b600083815260209020601f19861690835b82811015610fb75786850135825560209485019460019092019101610f97565b5086821015610fd45760001960f88860031b161c19848701351681555b505060018560011b0183555b5050505050565b634e487b7160e01b600052603260045260246000fd5b634e487b7160e01b600052602160045260246000fdfea2646970667358221220f9c8e3813f31b659d17d8d0797fde99ef95a58ed9e51227202011f25b08895c164736f6c63430008180033",
  "linkReferences": {},
  "deployedLinkReferences": {}
}